:020000040000FA
:060000000A128A110C280F
:10000800FE00030EF0000A08F1000A128A11BA2D48
:100018000A128A110F288317C830FD000530FE0028
:100028008230FF00903084000A128A112F260A12AB
:100038008A1183136130FD000630FE00AF30FF00E7
:100048005D3084000A128A112F260A128A11A03004
:100058008400C0300A128A1190260A128A1142308E
:1000680084005D300A128A1190260A128A118301CF
:100078000A128A112E2C831203134803031D4528E4
:100088004628C829B901BA01C8010A128A11C9212A
:100098000A128A11831203134C08031D61284B08A6
:1000A800031D61284A08031D61280F304902031DFA
:1000B8005D28031C60286128C8290030CC00003066
:1000C800CB000030CA000030C900420C031C0610E7
:1000D80003180614C2090130C3024308031D75281A
:1000E80076289B280A128A1141250A128A11103093
:1000F80083120313B1003108C3000730AB0000308E
:10010800AC000A128A1176240A128A118312031388
:100118002508AE002408AD000A128A1187230A12A6
:100128008A11831203132B08B1003108C500440853
:10013800B100B2013108BB003208BC00F5288312B7
:1001480003133B08B1003107A03E84008313000865
:10015800B200840A0008B3003B08B40034074D3EDF
:1001680084000008B500840A0008B6000310B60C25
:10017800B50C32083505B70033083605B80037081E
:1001880038040319C828C928EF280A128A114125FA
:100198000A128A11103083120313B1003108C30008
:1001A8000730AB000030AC000A128A1176240A121C
:1001B8008A11831203132508AE002408AD000A1221
:1001C8008A1187230A128A11831203132B08B1009C
:1001D8003108C5000A290130BB070318BC0A0030E2
:1001E800BC074408043EB100003003180130B200D7
:1001F8003C08803AB3003208803A3302031D0629CE
:1002080031083B02031C09290A29A3280A128A116A
:1002180078220A128A1183120313BB01BC018312CC
:1002280003133B08B1003107A03E84008313000884
:10023800B200840A0008B300B31F232924295F29C8
:100248000030F200F3001030F4000030F5004D30BB
:100258000A128A11EF250A128A110030F200F300FF
:100268001030F4000030F500A0300A128A11EF2592
:100278000A128A11103083120313B1003108C30027
:100288000730AB000030AC000A128A1176240A123B
:100298008A11831203132508AE002408AD000A1240
:1002A8008A1187230A128A11831203132B08B100BB
:1002B8003108C50072290130BB070318BC0A003099
:1002C800BC073C08803AFF0080307F02031D6E297E
:1002D80008303B02031C7129722913298312031366
:1002E800BB01BC0183120313B901BA0183120313C2
:1002F8003B08B1003107A03E840083130008B20018
:10030800840A0008B300390AB4000130B50000308F
:10031800B60091290310B50DB60DB40B8E2932081D
:100328003505B70033083605B80037083804031D0B
:100338009E299F29A029B3290130B9070318BA0AB1
:100348000030BA073A08803AFF0080307F02031D68
:10035800AF2908303902031CB229B3297A290130A0
:1003680083120313BB070318BC0A0030BC073C0800
:10037800803AFF0080307F02031DC42910303B0201
:10038800031CC729C82976290800831203134603CA
:10039800031DCF29D029202A043044020318D52967
:1003A800D629202AC6014408043EF9000030031863
:1003B8000130FA00092A790883120313A5002507DA
:1003C800A23E840083130008A600840A0008A70040
:1003D8007908A80028074D3E84000008A900840A6F
:1003E8000008AA0026082905AB0027082A05AC0042
:1003F8002B082C040319012A022A032A772AFF3022
:10040800F9070318FA0AFF30FA077A08803A803C9D
:10041800031D102A79084402031C132A142ADF2911
:10042800013083120313A5002508C4070A128A1194
:1004380078220A128A11772A4703031D242A252ABB
:10044800772A44080319292A2A2A772AC70144083F
:10045800A500A6012508F9002608FA005D2A7908F2
:1004680083120313A50025079E3E8400831300080A
:10047800A600840A0008A7007908A80028074D3EAE
:1004880084000008A900840A0008AA002608290593
:10049800AB0027082A05AC002B082C040319552AA1
:1004A800562A572A772A0130F9070318FA0A003022
:1004B800FA074408043EA500003003180130A600DE
:1004C8007A08803AA7002608803A2702031D6E2A78
:1004D80025087902031C712A722A332A01308312F3
:1004E8000313C4021A2A08000030F200F300103087
:1004F800F4000030F5004D300A128A11EF250A1277
:100508008A11831203134308FF3EA000A00A45087E
:10051800A10002300310A10DFF3E031D8E2A031017
:10052800210D903E840083170008A200840A000869
:10053800A300A12A0310A20DA30DA00B9E2A440814
:10054800A40024074D3E8400220883138000840AF7
:10055800230880004308FF3EA000A00A4508A10028
:1005680002300310A10DFF3E031DB52A0310210D13
:10057800923E840083170008A200840A0008A300A2
:10058800C82A0310A20DA30DA00BC52A4408A40075
:1005980024074F3E8400220883138000840A23081E
:1005A80080004308FF3EA000A00A4508A1000230D1
:1005B8000310A10DFF3E031DDC2A0310210D943EFC
:1005C800840083170008A200840A0008A300EF2A09
:1005D8000310A20DA30DA00BEC2A4408A4002407C5
:1005E800513E8400220883138000840A2308800077
:1005F8004308FF3EA000A00A4508A10002300310EE
:10060800A10DFF3E031D032B0310210D963E840010
:1006180083170008A200840A0008A300162B031001
:10062800A20DA30DA00B132B4408A4002407533ECE
:100638008400220883138000840A230880000800AD
:1006480083120313A6000A128A1100250A128A11BE
:1006580083120313A701A801831203132708280490
:10066800031D372B382B552B2708A20022072607F6
:10067800A3002308840083130008A400840A000848
:10068800A5002409F2002509F3000A128A11BD24E5
:100698000A128A1101300A128A110F260A128A11C7
:1006A800712B2708A20022072607A300230884002D
:1006B80083130008A400840A0008A5002409F20096
:1006C8002509F3000A128A11BD240A128A11003082
:1006D8000A128A110F260A128A1101308312031393
:1006E800A7070318A80A0030A8072808803AFF00BF
:1006F80080307F02031D822B08302702031C852BC4
:10070800862B302B080083120313B001AE1F8D2BEC
:100718008E2B952BAD09AE09AD0A0319AE0AB001AF
:10072800B00AAC1F982B992B9E2BAB09AC09AB0ACE
:100738000319AC0A2B082C040319A32BA42BD32BC5
:10074800AF01AF0AB22B01300310AB0DAC0DFF3E69
:10075800031DA82B0130FB007B08AF07AC1FB52B8E
:10076800B62BA72B2C082E02031DBC2B2B082D0201
:10077800031CBF2BC02BC62B2B08AD022C08031C57
:10078800AE03AE0201300310AC0CAB0CFF3E031DF0
:10079800C72B0130AF02031DD22BD32BB62B300849
:1007A8000319D72BD82BDD2BAD09AE09AD0A0319D8
:1007B800AE0A2E08AC002D08AB00080000308312EA
:1007C8000313A3000030A2000030A1000030A000F5
:1007D800721CEF2BF02B092C760883120313A00749
:1007E800770803110318013E0319FB2BA1077808AA
:1007F80003110318013E0319022CA20779080311FB
:100808000318013E0319092CA3070130FA0003104D
:10081800F60DF70DF80DF90DFA0B0B2C013003103E
:10082800F50CF40CF30CF20CFF3E031D132C7508A9
:10083800740473047204031D222C232CEC2B8312E2
:1008480003132308F5002208F4002108F300200808
:10085800F20008000A128A1161260A128A110A1285
:100868008A1151260A128A11103083120313C1000B
:100878004108C3000230C1004108C4000130F20041
:100888000030F3000A128A1187260A128A110730EB
:1008980083120313AB000030AC000A128A117624CD
:1008A8000A128A11831203132508AE002408AD002A
:1008B8000A128A1187230A128A11831203132B083A
:1008C800C1004108C5000A128A113F200A128A1184
:1008D800B0300A128A1124230A128A11672C0A12CC
:1008E8008A110C28831203136008F5005F08F400CE
:1008F8005E08F3005D08F2004130F900C630F800E8
:100908004E30F7006D30F6000A128A11E2230A12FF
:100918008A11750883120313E0007408DF00730856
:10092800DE007208DD003930DD0730300318313061
:10093800DE07003003180130DF07003003180130EC
:10094800E0075D08A6005E08A7005F08A800600829
:10095800A9001030AA00290DA90CA80CA70CA60CF8
:10096800AA0BAF2CFF302605A4007F302705A50071
:100978000800FA01FB01FA01FB017B08803AFF003D
:1009880080307F02031DCA2C10307A02031CCD2C44
:10099800CE2CCF2CFF2C7A0AF4000130F500003061
:1009A800F600D92C0310F50DF60DF40BD62C7208B1
:1009B8007505F70073087605F8007A0AE62C031027
:1009C800F80CF70CFF3E031DE32C7708F900F90E2D
:1009D8008312031307087906EF39790687000A128C
:1009E8008A11A4260A128A110130FA070318FB0A91
:1009F8000030FB07C12C080083120313A001A101DA
:100A0800A001A101831203132008F2007207A03E7F
:100A1800840083130008F300840A0008F400200807
:100A2800F50075074D3E84000008F600840A0008AA
:100A3800F70073087604F80074087704F9002008B2
:100A4800FA007A07B03E840078088000840A7908A2
:100A580080000130A0070318A10A0030A10721086F
:100A6800803AFF0080307F02031D3C2D08302002B1
:100A7800031C3F2D402D062D080083120313A001EF
:100A8800A101A001A101831203132008F20072073B
:100A98004D3E840083130008F300840A0008F40024
:100AA8002008F5007507A03E84000008F600840AB7
:100AB8000008F70073087604F80074087704F90052
:100AC8002008FA007A07A03E840078088000840A8B
:100AD800790880000130A0070318A10A0030A10797
:100AE8002108803AFF0080307F02031D7D2D0830E9
:100AF8002002031C802D812D472D0800023400346C
:100B08000234003403340034003400340334003435
:100B18000234003402340034003400340134003428
:100B28000334003402340034003400340234003416
:100B38000334003401340034003400340134003408
:100B480001340034013400340134003403340034F7
:100B580003340034003400340034003401340034E9
:100B68000334003401340034003400340B1DBD2D2F
:100B7800BE2DD12D0B11013083120313C90700308C
:100B880003180130CA07003003180130CB070030C2
:100B980003180130CC07C801C80A83120313861A48
:100BA800D62DD72DDA2DC601C60AC701061ADD2DA6
:100BB800DE2DE12DC601C701C70A061AE42DE52D71
:100BC800E82DC601C701C70A71088A00700E8300A4
:100BD800FE0E7E0E0900F8007808F6007608F70089
:100BE800002E7208F60077088400760883138000C8
:100BF8000130F6007608F7070130F4020030031CD4
:100C0800F503F502740A031D0D2E750A031D0D2E3A
:100C18000E2EF52D0800F30073080139F200F20ECC
:100C28008312031308087206EF39720688000A1245
:100C38008A1198260A128A110A128A11AA260A12F9
:100C48008A110A128A119E260A128A1108007E0841
:100C58008A007F0882000A128A112B260A128A113A
:100C68008000840A04087D0603190034FF0A03196A
:100C7800FE0A2F2E83160313061083120313061081
:100C88008316031308128812081388138312031398
:100C9800081288120813881308000A128A116F268E
:100CA8000A128A110A128A113E260A128A110A1297
:100CB8008A117C260A128A11080083120313810103
:100CC8008B178B160B1183160313811101148114D2
:100CD80001158112080083160313071287120713E0
:100CE8008713831203130712871207138713080049
:100CF8008316031386160616061386138312031328
:100D0800061386130800720883120313DD007308A4
:100D1800DE00DF01E001080064008001840A0406A7
:100D2800031900340406912E8312031388138817BD
:100D38008813080083120313071307170713080003
:100D4800831203138713871787130800831203136B
:0E0D580008170813080001340034003400347A
:02400E00793FF8
:00000001FF
