:020000040000FA
:060000000A128A110C280F
:10000800FE00030EF0000A08F1000A128A11A52E5C
:100018000A128A110F288313DC30FD000730FE0016
:100028002A30FF00C03084000A128A1166270A129B
:100038008A116B30FD000730FE00ED30FF0067309D
:1000480084000A128A1166270A128A11A0308400D5
:10005800C0300A128A11C8270A128A114530840052
:1000680067300A128A11C8270A128A1183010A12F4
:100078008A11C32C83120313B101B201AA01AB0187
:100088000030B0000030AF000030AE000030AD00EE
:1000980045080319502851286929C501B301B4013D
:1000A80083120313B101B201831203134908A50097
:1000B80002300310A50DFF3E031D5D28C030250743
:1000C800A60031082607A700270884008313000824
:1000D800A800330A71280310A80CFF3E031D6F28DF
:1000E80028080139A9002908AC0033082D3E8400EE
:1000F8002C08A5003108033C013E84280310A50DF7
:10010800FF3E031D822825080004A60033082D3E63
:100118008400260880000130B1070318B20A0030B5
:10012800B2073208803AFF0080307F02031D9E2804
:1001380004303102031CA128A22858280130831258
:100148000313B3070318B40A0030B4073408803A1D
:10015800FF0080307F02031DB32804303302031CE4
:10016800B628B7285428102983120313B301B40101
:100178008312031333082D3E84008313001CC52803
:10018800C628C7280829033033063404031DCD28A0
:10019800CE28F328B101B2018312031331082D3E92
:1001A800840083130008A5000310250CA60031085D
:1001B8002D3E8400260880000130B1070318B20ADA
:1001C8000030B2073208803AFF0080307F02031DFA
:1001D800EF2804303102031CF228F328D02801301C
:1001E80083120313B3070318B40A0030B4073408A2
:1001F800803AFF0080307F02031D04290430330257
:10020800031C07290829BC28013083120313AA07F5
:100218000318AB0A0030AB07831203132B08803A8C
:10022800FF0080307F02031D1B2903302A02031CB4
:100238001E291F29B828831203132D080F39031DFF
:100248002629272934292E08A5002508AD002F08BE
:10025800A5002508AE003008A5002508AF00B001AC
:10026800B301B4018312031333082D3E84008313B2
:100278000008A5004908A60002300310A60DFF3E9D
:10028800031D4129C0302607A70033082707A80007
:1002980028088400250880000130B3070318B40A31
:1002A8000030B4073408803AFF0080307F02031D15
:1002B8005F2904303302031C6229632936290A1294
:1002C8008A11A5210A128A11A4294A03031D6D293E
:1002D8006E298929CA010A128A11B3270A128A11BA
:1002E80083120313A5000A128A119C250A128A1187
:1002F8008312031325040319822983298429A42935
:100308000130A5002508C80763294B03031D8D2963
:100318008E29A4294808031992299329A429CB01D5
:100328000A128A112B240A128A11013A031D9D29E7
:100338009E299F29A429013083120313C802632927
:1003480008000030F200F3001030F4000030F5002F
:1003580057300A128A110A270A128A1183120313C4
:100368004708FF3EA000A00A4908A1000130031079
:10037800A10DFF3E031DBB290310210DC03E8400C3
:1003880083130008A200A301CC290310A20DA30D1A
:10039800A00BC9294808A4002407573E8400220856
:1003A8008000840A230880004708FF3EA000A00AB6
:1003B8004908A10001300310A10DFF3E031DDF29EC
:1003C8000310210DC13E84000008A200A301EF29FB
:1003D8000310A20DA30DA00BEC294808A4002407C4
:1003E800593E840022088000840A230880004708B8
:1003F800FF3EA000A00A4908A10001300310A10D8A
:10040800FF3E031D022A0310210DC23E840000088E
:10041800A200A301122A0310A20DA30DA00B0F2AFC
:100428004808A40024075B3E840022088000840A50
:10043800230880004708FF3EA000A00A4908A10041
:1004480001300310A10DFF3E031D252A0310210DC5
:10045800C33E84000008A200A301352A0310A20DA0
:10046800A30DA00B322A4808A40024075D3E84008F
:1004780022088000840A23088000080083120313DE
:100488004808B100B2013108B9003208BA00A22AFE
:10049800831203133908B1003107A03E8400831387
:1004A8000008B200840A0008B3003908B400340711
:1004B800573E84000008B500840A0008B6000310FF
:1004C800B60CB50C32083505B70033083605B80048
:1004D800370838040319712A722A9C2A0A128A11C9
:1004E80064260A128A11103083120313B1003108EE
:1004F800C7000230B1003108C8000730AB00003037
:10050800AC000A128A1155250A128A1183120313A4
:100518002508AE002408AD000A128A1181230A12A8
:100528008A11831203132B08B1003108C900B72AB6
:100538000130B9070318BA0A0030BA074808043E60
:10054800B100003003180130B2003A08803AB30015
:100558003208803A3302031DB32A31083902031CDA
:10056800B62AB72A4C2A080083120313B401B5012E
:10057800B401B501831203133408B1003107A03E5A
:10058800840083130008B200840A0008B300B31F74
:10059800CE2ACF2A0A2B0030F200F3001030F400E4
:1005A8000030F50057300A128A110A270A128A11F8
:1005B8000030F200F3001030F4000030F500A030F5
:1005C8000A128A110A270A128A1110308312031399
:1005D800B1003108C7000730AB000030AC000A1288
:1005E8008A1155250A128A11831203132508AE00B1
:1005F8002408AD000A128A1181230A128A11831273
:1006080003132B08B1003108C9001D2B0130B407B2
:100618000318B50A0030B5073508803AFF00803066
:100628007F02031D192B08303402031C1C2B1D2BC1
:10063800BE2A080083120313A6000A128A11232671
:100648000A128A1183120313A701A8018312031344
:1006580027082804031D312B322B4F2B2708A20013
:1006680022072607A3002308840083130008A40098
:10067800840A0008A5002409F2002509F3000A12DB
:100688008A11E0250A128A1101300A128A114627B6
:100698000A128A116B2B2708A20022072607A3003B
:1006A8002308840083130008A400840A0008A50016
:1006B8002409F2002509F3000A128A11E0250A121A
:1006C8008A1100300A128A1146270A128A1101304B
:1006D80083120313A7070318A80A0030A8072808DD
:1006E800803AFF0080307F02031D7C2B08302702F0
:1006F800031C7F2B802B2A2B080083120313B001C5
:10070800AE1F872B882B8F2BAD09AE09AD0A0319B5
:10071800AE0AB001B00AAC1F922B932B982BAB09F1
:10072800AC09AB0A0319AC0A2B082C0403199D2B3E
:100738009E2BCD2BAF01AF0AAC2B01300310AB0DB4
:10074800AC0DFF3E031DA22B0130FB007B08AF0759
:10075800AC1FAF2BB02BA12B2C082E02031DB62BE0
:100768002B082D02031CB92BBA2BC02B2B08AD026A
:100778002C08031CAE03AE0201300310AC0CAB0C0A
:10078800FF3E031DC12B0130AF02031DCC2BCD2B27
:10079800B02B30080319D12BD22BD72BAD09AE09BA
:1007A800AD0A0319AE0A2E08AC002D08AB000800EC
:1007B800831203134C03031DE22BE32B2A2CBE01E7
:1007C800BF01CC010A128A113E200A128A11831233
:1007D80003135608031DFE2B5508031DFE2B540852
:1007E800031DFE2B0F305302031DFA2B031CFD2B98
:1007F800FE2B2A2C0030D6000030D5000030D40063
:100808000030D300460C031C0610031806144609D2
:10081800BB003B08C6000130C7020A128A11D9265C
:100828000A128A110A128A1142220A128A110A121B
:100838008A11A5210A128A110A128A11B8220A12EB
:100848008A110A128A110E250A128A1108008312C7
:1008580003134808F200F3017208FA007308FB005A
:100868005E2C7A08F20072079E3E8400831300080B
:10087800F300840A0008F4007A08F5007507573E6B
:1008880084000008F600840A0008F700730876055B
:10089800F80074087705F900780879040319552CCD
:1008A800562C582C0130762C0130FA070318FB0A15
:1008B8000030FB07831203134808043EF20000309F
:1008C80003180130F3007B08803AF4007308803A7B
:1008D8007402031D712C72087A02031C742C752C87
:1008E800352C00300800003083120313A3000030B9
:1008F800A2000030A1000030A000721C842C852CBE
:100908009E2C760883120313A00777080311031897
:10091800013E0319902CA107780803110318013E22
:100928000319972CA207790803110318013E03192C
:100938009E2CA3070130FA000310F60DF70DF80DF1
:10094800F90DFA0BA02C01300310F50CF40CF30C84
:10095800F20CFF3E031DA82C75087404730472047E
:10096800031DB72CB82C812C831203132308F50020
:100978002208F4002108F3002008F20008000A12F7
:100988008A1198270A128A110A128A1188270A12CC
:100998008A1183120313C5011030C4004408C7002C
:1009A8000230C4004408C800CD01CE010130F20075
:1009B8000030F3000A128A11BF270A128A11073081
:1009C80083120313AB000030AC000A128A115525BC
:1009D8000A128A11831203132508AE002408AD00F9
:1009E8000A128A1181230A128A11831203132B080F
:1009F800C4004408C9000A128A11DC230A128A11A9
:100A0800B0300A128A111E230A128A11FF2C0A1208
:100A18008A110C28F901FA01F601F60AF701F80122
:100A2800F901FA017908F2007207A03E84008313E5
:100A38000008F300840A0008F400770A262D031042
:100A4800F40CF30CFF3E031D232D73087605F50007
:100A58007508F6000130F9070318FA0A0030FA079A
:100A68007A08803AFF0080307F02031D3D2D083050
:100A78007902031C402D412D162D0130F70703186C
:100A8800F80A0030F8077808803AFF0080307F02C3
:100A9800031D502D10307702031C532D542D142D97
:100AA8000800831203136A08F5006908F40068084F
:100AB800F3006708F2004130F900C630F8004E3004
:100AC800F7006D30F6000A128A1177240A128A118B
:100AD800750883120313EA007408E9007308E80034
:100AE8007208E7003930E707303003183130E8077B
:100AF800003003180130E907003003180130EA0715
:100B08006708A6006808A7006908A8006A08A9007D
:100B18001030AA00290DA90CA80CA70CA60CAA0B2A
:100B28008E2DFF302605A4007F302705A50008007C
:100B3800831203134808033EFA00003003180130FB
:100B4800FB00CF2D7A08F2007207A23E84008313BF
:100B58000008F300840A0008F4007A08F500750715
:100B6800573E84000008F600840A0008F70073085E
:100B78007605F80074087705F900780879040319F0
:100B8800C62DC72DC92D0130DF2DFF30FA070318F8
:100B9800FB0AFF30FB077B08803AF20080307202C4
:100BA800031DDA2D8312031348087A020318DD2D7A
:100BB800DE2DA62D00300800FA01FB01FA01FB0129
:100BC8007B08803AFF0080307F02031DED2D103036
:100BD8007A02031CF02DF12DF22D222E7A0AF40050
:100BE8000130F5000030F600FC2D0310F50DF60D70
:100BF800F40BF92D72087505F70073087605F800EF
:100C08007A0A092E0310F80CF70CFF3E031D062E76
:100C18007708F900F90E8312031307087906EF39EC
:100C2800790687000A128A11DC270A128A11013014
:100C3800FA070318FB0A0030FB07E42D08008312AB
:100C48000313A001A101A001A1018312031320082D
:100C5800F2007207A03E840083130008F300840AA0
:100C68000008F4002008F5007507573E84000008C6
:100C7800F600840A0008F70073087604F800740880
:100C88007704F9002008FA007A07B03E8400780853
:100C98008000840A790880000130A0070318A10A9F
:100CA8000030A1072108803AFF0080307F02031D31
:100CB8005F2E08302002031C622E632E292E0800A6
:100CC80083120313A001A101A001A1018312031340
:100CD8002008F2007207573E840083130008F300CF
:100CE800840A0008F4002008F5007507A03E840077
:100CF8000008F600840A0008F70073087604F80074
:100D080074087704F9002008FA007A07A03E8400E6
:100D180078088000840A790880000130A007031849
:100D2800A10A0030A1072108803AFF0080307F0225
:100D3800031DA02E08302002031CA32EA42E6A2E09
:100D480008000B1DA82EA92EBC2E0B1101308312F2
:100D58000313D307003003180130D40700300318F9
:100D68000130D507003003180130D607CC01CC0A72
:100D780083120313861AC12EC22EC52ECA01CA0AAF
:100D8800CB01061AC82EC92ECC2ECA01CB01CB0A1C
:100D98008619CF2ED02ED22EC501C50A71088A0019
:100DA800700E8300FE0E7E0E09008312031347089F
:100DB800031DDF2EE02E092F0A128A1164260A125B
:100DC8008A11103083120313B1003108C7000230B2
:100DD800B1003108C8000730AB000030AC000A127F
:100DE8008A1155250A128A11831203132508AE00A9
:100DF8002408AD000A128A1181230A128A1183126B
:100E080003132B08B1003108C9000800F80078085E
:100E1800F6007608F7001B2F7208F60077088400A2
:100E28007608831380000130F6007608F707013052
:100E3800F4020030031CF503F502740A031D282F81
:100E4800750A031D282F292F102F08000234023499
:100E580003340034033402340234003401340334DC
:100E680002340034023403340134003401340134D0
:100E780001340134033403340034003401340334BE
:100E880001340034F30073080139F200F20E8312C2
:100E9800031308087206EF39720688000A128A11CD
:100EA800D0270A128A110A128A11E8270A128A110F
:100EB8000A128A11D6270A128A1108007E088A00A7
:100EC8007F0882000A128A1162270A128A1180009A
:100ED800840A04087D0603190034FF0A0319FE0A70
:100EE800662F831603130610831203130610831646
:100EF80003130812881208138813831203130812A5
:100F080088120813881308000A128A11A6270A12E1
:100F18008A110A128A1175270A128A110A128A116D
:100F2800E2270A128A1108008312031381018B1722
:100F38008B160B11831603138111011481140115EB
:100F480081120800831603130712871207138713E9
:100F580083120313071287120713871308008312DB
:100F68000313650866040319BA2FBB2FBD2F013080
:100F7800BE2F00300800720883120313E7007308BD
:100F8800E800E901EA01080064008001840A040617
:100F9800031900340406C92F831203138813881712
:100FA8008813080083120313071307170713080091
:100FB80083120313871387178713080083160313F5
:100FC80086160616861508008312031308170813D9
:0A0FD8000800013400340034003436
:02400E00793FF8
:00000001FF
