:020000040000FA
:060000000A128A1110280B
:10000800FE00030E83120313AE000A08AF007F0838
:10001800B0000A128A1112290A128A1113288313AE
:10002800F030FD000130FE00CD30FF00A03084002C
:100038000A128A1199230A128A115F30FD000330CF
:10004800FE00F130FF00593084000A128A1199230A
:100058000A128A114430840059300A128A11E123A5
:100068000A128A1183010A128A113A280A128A117D
:10007800D6230A128A110A128A11E9230A128A114E
:100088000A128A11BB230A128A1100300A128A1135
:1000980036230A128A11003083120313B100B2000A
:1000A8000A128A111D220A128A11831203135D088B
:1000B800FF3E831603179000900A83120313470824
:1000C80083160317910002300310910DFF3E031DA4
:1000D80068280310110DA03E8400831300089200C5
:1000E800840A000893007B280310920D930D900B4F
:1000F8007828120883120313CD00831603171308F8
:1001080083120313CE005D08FF3E83160317900089
:10011800900A8312031347088316031791000230CD
:100128000310910DFF3E031D94280310110DA23EEC
:10013800840000089200840A00089300A62803108F
:10014800920D930D900BA328120883120313CF006E
:1001580083160317130883120313D0005D08FF3EAC
:10016800831603179000900A831203134708831617
:100178000317910002300310910DFF3E031DBF28A5
:100188000310110DA43E840000089200840A0008A0
:100198009300D1280310920D930D900BCE281208CE
:1001A80083120313D1008316031713088312031352
:1001B800D2005D08FF3E831603179000900A831251
:1001C8000313470883160317910002300310910D9B
:1001D800FF3E031DEA280310110DA63E8400000807
:1001E8009200840A00089300FC280310920D930DD6
:1001F800900BF928120883120313D30083160317F0
:10020800130883120313D40049300A128A11F12209
:100218000A128A1159280A128A1110280B1D152949
:1002280016295A290B110130C4070318C50A0030D2
:10023800C5074508803AFF008F307F02031D262935
:1002480042304402031C29292A29672983120313EF
:10025800480C031C061003180614C8090130DD02F7
:10026800C401C5015D08031D3A293B2967291030DF
:10027800AD002D08DD000530A7000030A8000A12E7
:100288008A1164220A128A11831203132108AA0010
:100298002008A9000A128A1172210A128A118312EF
:1002A80003132708AD002D08C70067290B1C5D291B
:1002B8005E296729861A6129622966291030AD00EE
:1002C8002D08DD000B10831203133008FF002F08E0
:1002D8008A002E0E8300FE0E7E0E09008312031381
:1002E800AC01AA1F782979298029A909AA09A90A8C
:1002F8000319AA0AAC01AC0AA81F832984298929F1
:10030800A709A809A70A0319A80A2708280403198E
:100318008E298F29BE29AB01AB0A9D290130031014
:10032800A70DA80DFF3E031D93290130FD007D0890
:10033800AB07A81FA029A129922928082A02031D72
:10034800A72927082902031CAA29AB29B1292708AC
:10035800A9022808031CAA03AA0201300310A80C4A
:10036800A70CFF3E031DB2290130AB02031DBD29B6
:10037800BE29A1292C080319C229C329C829A909FA
:10038800AA09A90A0319AA0A2A08A8002908A7007D
:1003980008000234003402340034033400340034DA
:1003A800003400340034033400340234003402349E
:1003B800003401340034033400340234003400348F
:1003C800003400340034023400340334003401347F
:1003D8000034013400340134003401340034013471
:1003E800003400340034033400340334003400345F
:1003F8000034FF34FF34FF34FF34FF34FF34FF345C
:10040800FF34FF34FF34FF34FF34FF34FF34FF344C
:10041800FF34303400344834003444340034223457
:100428000034443400344834003430340034003468
:10043800003483120313B901BA01B901BA013A08A9
:10044800803AFF0080307F02031D2C2A10303902C9
:10045800031C2F2A302A312A632A83120313390AEC
:10046800B3000130B4000030B5003D2A0310B40DCC
:10047800B50DB30B3A2A31083405B60032083505F4
:10048800B700390A4A2A0310B70CB60CFF3E031D01
:10049800472A3608B800B80E07083806EF39380674
:1004A80087000A128A11FD230A128A110130831269
:1004B8000313B9070318BA0A0030BA07232A080039
:1004C800831203135C08F3005B08F2005A08F1007A
:1004D8005908F0004130F700C630F6004E30F500FC
:1004E8006D30F4000A128A11AB220A128A117308BD
:1004F80083120313DC007208DB007108DA0070084D
:10050800D9003930D907303003183130DA070030D4
:1005180003180130DB07003003180130DC075908E5
:10052800A2005A08A3005B08A4005C08A5001030CC
:10053800A600250DA50CA40CA30CA20CA60B9D2AA5
:10054800FF302205A0007F302305A10008000030FD
:10055800FC000030FB000030FA000030F900701C8D
:10056800B62AB72ACE2A7408F907750803110318A2
:10057800013E0319C02AFA07760803110318013E41
:100588000319C72AFB07770803110318013E03194B
:10059800CE2AFC070130F8000310F40DF50DF60D16
:1005A800F70DF80BD02A01300310F30CF20CF10C04
:1005B800F00CFF3E031DD82A7308720471047004FE
:1005C800031DE72AE82AB32A7C08F3007B08F20017
:1005D8007A08F1007908F000080083120313BF00BD
:1005E80009305E06031DF92AFA2A142BDE01DE0AF9
:1005F8003F08840083130008BB00840A0008BC007D
:100608003B09B1003C09B2000A128A111D220A12E4
:100618008A1101300A128A1179230A128A11352B9C
:100628000130BB003B08DE075E08BB003B073F0705
:10063800BC003C08FE3E840083130008BD00840A09
:100648000008BE003D09B1003E09B2000A128A1135
:100658001D220A128A1100300A128A1179230A12FD
:100668008A11080083120313B600B701B8010130DC
:1006780083120313B100370A432B0310B10DFF3E59
:10068800031D412B31083605B200370A4D2B0310E4
:10069800B20CFF3E031D4B2B3208B3003308B500E4
:1006A800350C031C0812031808160A128A110324B1
:1006B8000A128A11013083120313B7070318B80A04
:1006C8000030B8073808803AFF0080307F02031DE9
:1006D8006F2B08303702031C722B732B3B2B0A122B
:1006E8008A1109240A128A11080083120313B2001E
:1006F80032080139B100B10E08083106EF39310668
:1007080088000A128A1103240A128A110A128A110D
:1007180009240A128A110A128A11F7230A128A1165
:1007280008007E088A007F0882000A128A11952331
:100738000A128A118000840A04087D06031900340D
:10074800FF0A0319FE0A992B831603130610831256
:10075800031306108316031308128812081388134C
:1007680083120313081288120813881308008312CF
:10077800031381018B178B160B1183160313811535
:10078800011481140115811208008316031307123E
:10079800871207138713831203130712871207138D
:1007A800871308000A128A11C9230A128A110A1229
:1007B8008A11A8230A128A11080064008001840A99
:1007C8000406031900340406E22B8B170B178B154C
:1007D8000B1083160313811308000134003400340E
:1007E8000034103401348312031307130717071357
:1007F80008008312031387138717871308008312CF
:100808000313881388178813080083120313081723
:0408180008130800B9
:02400E00793FF8
:00000001FF
