:020000040000FA
:060000000A128A11EA2F2A
:100C140083120313881108008312031306160612A5
:100C240008008312031386128616861208008312A4
:100C340003138812881688120800831203130812FB
:100C4400081608120800013400340034013400345A
:100C540001340134003401340034FF34FF34AA3445
:100C6400963496347E088A007F0882000A128A111C
:100C740034260A128A118000840A04087D060319A6
:100C84000034FF0A0319FE0A382E831603130610D4
:100C9400861006110612861208118811081288128D
:100CA4008312031306108610061106128612081109
:100CB4008811081288120800F10071080139F00047
:100CC400F00D8312031306087006FD3970068600C2
:100CD4000A128A1113260A128A110A128A110E267E
:100CE4000A128A110A128A111F260A128A1108008E
:100CF400F500F601F7010130F000760A832E0310A7
:100D0400F00DFF3E031D812E70087505F100760A73
:100D14008D2E0310F10CFF3E031D8B2E7108F20083
:100D24007208F400740C83120313031C8610031856
:100D340086140A128A1113260A128A110130F60740
:100D44000318F70A0030F7077708803AFF0080306D
:100D54007F02031DAF2E08307602031CB22EB32E81
:100D64007D2E0A128A110E260A128A110800FA012F
:100D7400FB01FA01FB017B08803AFF0080307F020F
:100D8400031DC62E10307A02031CC92ECA2ECB2E88
:100D9400FC2E7A0AF2000130F3000030F400D52E64
:100DA4000310F30DF40DF20BD22E70087305F50049
:100DB40071087405F6007A0AE22E0310F60CF50C9D
:100DC400FF3E031DDF2E7508F700F70DF70D8312A4
:100DD400031308087706FB39770688000A128A117C
:100DE40019260A128A110130FA070318FB0A003087
:100DF400FB07BD2E0A128A110A260A128A1108005C
:100E04000A128A1147260A128A1100300A128A111C
:100E14007A260A128A110030F000F1000A128A11AF
:100E2400B9260A128A11831203130614C82FCF306D
:100E3400F000FF30F1000A128A11B9260A128A1151
:100E440001300A128A115E260A128A1102308312B4
:100E54000313A8000030A900C82FB730F000FF30FA
:100E6400F1000A128A11B9260A128A1100300A12F4
:100E74008A115E260A128A11033083120313A80012
:100E84000030A900C82FBB30F000FF30F1000A1277
:100E94008A11B9260A128A1100300A128A115E26B2
:100EA4000A128A11043083120313A8000030A90027
:100EB400C82FDD30F000FF30F1000A128A11B92684
:100EC4000A128A1100300A128A115E260A128A1145
:100ED400053083120313A8000030A900C82FBB30CB
:100EE400F000FF30F1000A128A11B9260A128A11A1
:100EF40000300A128A115E260A128A110630831201
:100F04000313A8000030A900C82FB730F000FF3049
:100F1400F1000A128A11B9260A128A1100300A1243
:100F24008A115E260A128A11073083120313A8005D
:100F34000030A900C82FCF30F000FF30F1000A12B2
:100F44008A11B9260A128A1100300A128A115E2601
:100F54000A128A11083083120313A8000030A90072
:100F6400C82FFF30F000FF30F1000A128A11B926B1
:100F74000A128A1100300A128A115E260A128A1194
:100F8400013083120313A8000030A9002908003A95
:100F94000319CD2FC82F2808013A0319192F033A32
:100FA40003192F2F013A0319452F073A03195B2F11
:100FB400013A0319712F033A0319872F013A0319D0
:100FC4009D2F0F3A0319B32FC82F0A128A11002834
:100FD40083132F30FD000630FE002530FF00203043
:100FE40084000A128A1138260A128A11AF01B0014C
:0C0FF400B101B20183010A128A11022F20
:02400E00793FF8
:00000001FF
