:020000040000FA
:060000000A128A110C280F
:10000800FE00030EF0000A08F1000A128A11422DC0
:100018000A128A110F288317C830FD000530FE0028
:100028000A30FF00903084000A128A11B6250A129D
:100038008A1183136430FD000630FE003E30FF0055
:10004800603084000A128A11B6250A128A11A0307B
:100058008400C0300A128A1117260A128A11433006
:10006800840060300A128A1117260A128A11830145
:100078000A128A119A2B831203134B03031D452876
:100088004628742ABA01BB014F08031D59284E0897
:10009800031D59284D08031D59280F304C02031D14
:1000A8005528031C58285928712A450C031C06108A
:1000B800031806144509B1003108C5000130C6020D
:1000C8000030CF000030CE000030CD000030CC0032
:1000D8004608031D70287128CD28BA01BB01831278
:1000E80003133A08B1003107A03E840083130008C7
:1000F800B200840A0008B3003A08B4003407503E3E
:1001080084000008B500840A0008B60032083504E7
:10011800B70033083604B8003A08B9003907503E2A
:10012800840037088000840A380880000130BA0744
:100138000318BB0A0030BB073B08803AFF00803039
:100148007F02031DA92808303A02031CAC28AD28F9
:100158007328103083120313B1003108C60007302A
:10016800AB000030AC000A128A1180240A128A11EE
:10017800831203132508AE002408AD000A128A1161
:100188003F230A128A11831203132B08B100310886
:10019800C8000A128A1175220A128A1183120313DF
:1001A800BC01BD01831203133C08B1003107503E66
:1001B800840083130008B200840A0008B3003C08D6
:1001C800B4003407A03E84000008B500840A000883
:1001D800B60032083504B70033083604B8003C08C6
:1001E800B9003907B03E840037088000840A38080F
:1001F80080000130BC070318BD0A0030BD073D0868
:10020800803AFF0080307F02031D0C2908303C0231
:10021800031C0F291029D628831203134708B1009D
:10022800B2013108BC003208BD00A32983120313B0
:100238003C08B1003107503E840083130008B20027
:10024800840A0008B3003C08B4003407A03E8400C8
:100258000008B500840A0008B6000310B60CB50CF7
:1002680032083505B70033083605B80037083804B2
:1002780003193F2940299D29BA01BB0183120313A1
:100288003A08B1003107A03E840083130008B20089
:10029800840A0008B3003A08B4003407503E8400CA
:1002A8000008B500840A0008B60032083504B70013
:1002B80033083604B8003A08B9003907503E8400BC
:1002C80037088000840A380880000130BA0703180C
:1002D800BB0A0030BB073B08803AFF0080307F0232
:1002E800031D782908303A02031C7B297C294229FE
:1002F800103083120313B1003108C6000730AB0079
:100308000030AC000A128A1180240A128A11831262
:1003180003132508AE002408AD000A128A113F23F2
:100328000A128A11831203132B08B1003108C8007E
:10033800B8290130BC070318BD0A0030BD074708BB
:10034800043EB100003003180130B2003D08803A85
:10035800B3003208803A3302031DB42931083C0245
:10036800031CB729B8291A2983120313BC01BD013C
:10037800831203133C08B1003107503E84008313F5
:100388000008B200840A0008B300B31FCC29CD29A5
:10039800082A0030F200F3001030F4000030F500B5
:1003A800A0300A128A1176250A128A110030F2004A
:1003B800F3001030F4000030F50050300A128A11B2
:1003C80076250A128A11103083120313B1003108FE
:1003D800C6000730AB000030AC000A128A11802436
:1003E8000A128A11831203132508AE002408AD00EF
:1003F8000A128A113F230A128A11831203132B0847
:10040800B1003108C8001B2A0130BC070318BD0A17
:100418000030BD073D08803AFF0080307F02031D91
:10042800172A08303C02031C1A2A1B2ABC298312EB
:100438000313BC01BD0183120313BA01BB0183126C
:1004480003133C08B1003107503E840083130008B1
:10045800B200840A0008B3003A0AB4000130B500BB
:100468000030B6003A2A0310B50DB60DB40B372A82
:1004780032083505B70033083605B80037083804A0
:10048800031D472A482A492A5C2A0130BA0703185B
:10049800BB0A0030BB073B08803AFF0080307F0270
:1004A800031D582A08303A02031C5B2A5C2A232AB7
:1004B800013083120313BC070318BD0A0030BD07BF
:1004C8003D08803AFF0080307F02031D6D2A1030FE
:1004D8003C02031C702A712A1F2A83120313CB01C2
:1004E80008000030F200F3001030F4000030F5008E
:1004F800A0300A128A1176250A128A118312031370
:100508004903031D882A892A952A043047020318BB
:100518008E2A8F2A952A0130A0002008C707C90112
:10052800A22A4A03031D992A9A2AA22A47080319CC
:100538009E2A9F2AA22A0130C702CA014608FF3E06
:10054800A000A00A4808A10002300310A10DFF3E38
:10055800031DA92A0310210D903E8400831700086B
:10056800A200840A0008A300BC2A0310A20DA30D50
:10057800A00BB92A4708A4002407A03E840022083B
:1005880083138000840A230880004608FF3EA000E9
:10059800A00A4808A10002300310A10DFF3E031D68
:1005A800D02A0310210D923E840083170008A20070
:1005B800840A0008A300E32A0310A20DA30DA00BD0
:1005C800E02A4708A4002407A23E840022088313D7
:1005D8008000840A230880004608FF3EA000A00A85
:1005E8004808A10002300310A10DFF3E031DF72AA1
:1005F8000310210D943E840083170008A200840A8A
:100608000008A3000A2B0310A20DA30DA00B072BB3
:100618004708A4002407A43E84002208831380000E
:10062800840A230880004608FF3EA000A00A480864
:10063800A10002300310A10DFF3E031D1E2B031065
:10064800210D963E840083170008A200840A000842
:10065800A300312B0310A20DA30DA00B2E2B4708CE
:10066800A4002407A63E8400220883138000840A7D
:1006780023088000080083120313B001AE1F452B26
:10068800462B4D2BAD09AE09AD0A0319AE0AB001D0
:10069800B00AAC1F502B512B562BAB09AC09AB0A37
:1006A8000319AC0A2B082C0403195B2B5C2B8B2B2E
:1006B800AF01AF0A6A2B01300310AB0DAC0DFF3E42
:1006C800031D602B0130FB007B08AF07AC1F6D2BAF
:1006D8006E2B5F2B2C082E02031D742B2B082D026A
:1006E800031C772B782B7E2B2B08AD022C08031CC0
:1006F800AE03AE0201300310AC0CAB0CFF3E031D81
:100708007F2B0130AF02031D8A2B8B2B6E2B3008F9
:1007180003198F2B902B952BAD09AE09AD0A031940
:10072800AE0A2E08AC002D08AB0008000A128A1188
:10073800E8250A128A110A128A11D8250A128A1182
:100748000A128A111F260A128A1183120313C3017F
:10075800C30A1030C2004208C6000230C200420874
:10076800C7000130F2000030F3000A128A110E2689
:100778000A128A11073083120313AB000030AC0051
:100788000A128A1180240A128A1183120313250877
:10079800AE002408AD000A128A113F230A128A11FA
:1007A800831203132B08C2004208C8000A128A11D8
:1007B8003F200A128A11B0300A128A1135240A120F
:1007C8008A11DA2B0A128A110C28003083120313BB
:1007D800A3000030A2000030A1000030A000721C6D
:1007E800F62BF72B102C760883120313A007770833
:1007F80003110318013E0319022CA10778080311FD
:100808000318013E0319092CA207790803110318DC
:10081800013E0319102CA3070130FA000310F60D4E
:10082800F70DF80DF90DFA0B122C01300310F50C29
:10083800F40CF30CF20CFF3E031D1A2C750874041B
:1008480073047204031D292C2A2CF32B831203131F
:100858002308F5002208F4002108F3002008F2001C
:10086800080083120313A40009304306031D3D2C1E
:100878003E2C5E2CC301C30A4308A00020072407AE
:10088800A1002108FE3E840083130008A200840A08
:100898000008A3002209F2002309F3000A128A11B2
:1008A800C7240A128A1101300A128A1196250A12DF
:1008B8008A117F2C0130A0002008C3074308A0003C
:1008C80020072407A1002108FE3E840083130008A6
:1008D800A200840A0008A3002209F2002309F300F9
:1008E8000A128A11C7240A128A1100300A128A11C0
:1008F80096250A128A110800831203136308F5006B
:100908006208F4006108F3006008F2004130F90061
:10091800C630F8004E30F7006D30F6000A128A1122
:10092800E9230A128A11750883120313E300740875
:10093800E2007308E1007208E0003930E007303067
:1009480003183130E107003003180130E2070030A6
:1009580003180130E3076008A6006108A7006208D1
:10096800A8006308A9001030AA00290DA90CA80C3A
:10097800A70CA60CAA0BB92CFF302605A4007F30C3
:100988002705A5000800FA01FB01FA01FB017B0815
:10099800803AFF0080307F02031DD42C10307A0289
:1009A800031CD72CD82CD92C092D7A0AF400013035
:1009B800F5000030F600E32C0310F50DF60DF40BEE
:1009C800E02C72087505F70073087605F8007A0AB6
:1009D800F02C0310F80CF70CFF3E031DED2C7708E4
:1009E800F900F90E8312031307087906EF3979061F
:1009F80087000A128A1133260A128A110130FA076F
:100A08000318FB0A0030FB07CB2C08000234003423
:100A18000234003403340034003400340334003426
:100A28000234003402340034003400340134003419
:100A38000334003402340034003400340234003407
:100A480003340034013400340034003401340034F9
:100A580001340034013400340134003403340034E8
:100A680003340034003400340034003401340034DA
:100A78000334003401340034003400340B1D452D98
:100A8800462D5A2D0B11013083120313CC07003069
:100A980003180130CD07003003180130CE070030AD
:100AA80003180130CF07CB01CB0A6F2D0B1C5D2D2E
:100AB8005E2D6F2D83120313861A632D642D672D07
:100AC800C901C90ACA01061A6A2D6B2D6E2DC90102
:100AD800CA01CA0A0B1071088A00700E8300FE0E44
:100AE8007E0E0900F8007808F6007608F700872DD2
:100AF8007208F600770884007608831380000130B6
:100B0800F6007608F7070130F4020030031CF503FD
:100B1800F502740A031D942D750A031D942D952D55
:100B28007C2D0800F30073080139F200F20E8312DD
:100B3800031308087206EF39720688000A128A1130
:100B480027260A128A110A128A1139260A128A11CC
:100B58000A128A112D260A128A1108007E088A00B4
:100B68007F0882000A128A11B2250A128A118000AF
:100B7800840A04087D0603190034FF0A0319FE0AD3
:100B8800B62D83160313061083120313061083165B
:100B98000313081288120813881383120313081208
:100BA80088120813881308000A128A11F6250A12F7
:100BB8008A110A128A11C5250A128A110A128A1183
:100BC80003260A128A1108008312031381018B1766
:100BD8008B160B118316031381110114811401154F
:100BE800811208008316031307128712071387134D
:100BF800831203130712871207138713080083163B
:100C08000313861606160613861383120313061398
:100C180086130800720883120313E0007308E100CA
:100C2800E201E301080064008001840A0406031954
:100C380000340406182E8B170B178B150B10831610
:100C4800031381130800831203138813881788136A
:100C580008008312031307130717071308008312EA
:100C680003138713871787130800831203130817C2
:0C0C78000813080001340034003400347C
:02400E00793FF8
:00000001FF
