:020000040000FA
:060000000A128A110C280F
:10000800FE00030EF0000A08F1000A128A117A2E87
:100018000A128A110F288313DC30FD000630FE0017
:10002800FB30FF00C03084000A128A1137270A12F9
:100038008A116930FD000730FE00B230FF006530DC
:1000480084000A128A1137270A128A11A030840004
:10005800C0300A128A118D270A128A11453084008D
:1000680065300A128A118D270A128A1183010A1231
:100078008A11252D83120313B401B501AD01AE0118
:100088000030B3000030B2000030B1000030B000E2
:1000980045080319502851285629C501B601B7014A
:1000A80083120313B401B501831203134908A50091
:1000B80002300310A50DFF3E031D5D28C030250743
:1000C800A60034082607A700270884008313000821
:1000D800A800360A71280310A80CFF3E031D6F28DC
:1000E80028080139A9002908AF003608303E8400E5
:1000F8002F08A5003408033C013E84280310A50DF1
:10010800FF3E031D822825080004A6003608303E5D
:100118008400260880000130B4070318B50A0030AF
:10012800B5073508803AFF0080307F02031D9E28FE
:1001380004303402031CA128A22858280130831255
:100148000313B6070318B70A0030B7073708803A11
:10015800FF0080307F02031DB32804303602031CE1
:10016800B628B7285428102983120313B601B701FB
:10017800831203133608303E84008313001CC528FD
:10018800C628C7280829033036063704031DCD289A
:10019800CE28F328B401B501831203133408303E86
:1001A800840083130008A5000310250CA60034085A
:1001B800303E8400260880000130B4070318B50AD1
:1001C8000030B5073508803AFF0080307F02031DF4
:1001D800EF2804303402031CF228F328D028013019
:1001E80083120313B6070318B70A0030B707370896
:1001F800803AFF0080307F02031D04290430360254
:10020800031C07290829BC28013083120313AD07F2
:100218000318AE0A0030AE07831203132E08803A83
:10022800FF0080307F02031D1B2902302D02031CB2
:100238001E291F29B82883120313B601B701831298
:1002480003133608303E840083130008A5004908CC
:10025800A60002300310A60DFF3E031D2E29C03054
:100268002607A70036082707A800280884002508BD
:1002780080000130B6070318B70A0030B7073708FF
:10028800803AFF0080307F02031D4C29043036027B
:10029800031C4F29502923290A128A11FE210A1208
:1002A8008A11FD294A03031D5A295B29A62904300E
:1002B8004802031860296129A629CA014808043E92
:1002C800B600003003180130B700942983120313D5
:1002D8003608A5002507A23E840083130008A6005F
:1002E800840A0008A7003608A8002807553E84009D
:1002F8000008A900840A0008AA0026082905AB00FE
:1003080027082A05AC002B082C0403198C298D29F1
:100318008E29FD29FF30B6070318B70AFF30B70743
:100328003708803A803C031D9B2936084802031C85
:100338009E299F296A29013083120313A5002508E5
:10034800C80750294B03031DAA29AB29FD294808D2
:100358000319AF29B029FD29CB014808A500A6013A
:100368002508B6002608B700E329831203133608C8
:10037800A50025079E3E840083130008A600840A72
:100388000008A7003608A8002807553E8400000882
:10039800A900840A0008AA0026082905AB00270836
:1003A8002A05AC002B082C040319DB29DC29DD29DC
:1003B800FD290130B6070318B70A0030B707480807
:1003C800043EA500003003180130A6003708803A23
:1003D800A7002608803A2702031DF42925083602BB
:1003E800031CF729F829B929013083120313C8021D
:1003F800502908000030F200F3001030F4000030FB
:10040800F50055300A128A11DB260A128A11831266
:1004180003134708FF3EA000A00A4908A1000130C5
:100428000310A10DFF3E031D142A0310210DC03E29
:10043800840083130008A200A301252A0310A20D3B
:10044800A30DA00B222A4808A4002407553E8400C7
:1004580022088000840A230880004708FF3EA00085
:10046800A00A4908A10001300310A10DFF3E031D99
:10047800382A0310210DC13E84000008A200A30100
:10048800482A0310A20DA30DA00B452A4808A40072
:100498002407573E840022088000840A230880002D
:1004A8004708FF3EA000A00A4908A1000130031038
:1004B800A10DFF3E031D5B2A0310210DC23E8400DF
:1004C8000008A200A3016B2A0310A20DA30DA00B24
:1004D800682A4808A4002407593E8400220880009E
:1004E800840A230880004708FF3EA000A00A4908A4
:1004F800A10001300310A10DFF3E031D7E2A031049
:10050800210DC33E84000008A200A3018E2A031017
:10051800A20DA30DA00B8B2A4808A40024075B3E5C
:10052800840022088000840A2308800008008312BF
:1005380003134808B100B2013108B9003208BA0003
:10054800F72A831203133908B1003107A03E84004B
:1005580083130008B200840A0008B3003908B40005
:100568003407553E84000008B500840A0008B60028
:100578000310B60CB50C32083505B700330836053C
:10058800B800370838040319CA2ACB2AF12A0A12F4
:100598008A1139260A128A11103083120313B10006
:1005A8003108C7000730AB000030AC000A128A11CE
:1005B8006E250A128A11831203132508AE00240837
:1005C800AD000A128A11D6230A128A118312031364
:1005D8002B08B1003108C9000C2B0130B9070318EA
:1005E800BA0A0030BA074808043EB10000300318C0
:1005F8000130B2003A08803AB3003208803A330238
:10060800031D082B31083902031C0B2B0C2BA52AC0
:10061800080083120313B401B501B401B5018312B4
:1006280003133408B1003107A03E84008313000887
:10063800B200840A0008B300B31F232B242B5F2BBE
:100648000030F200F3001030F4000030F5005530AF
:100658000A128A11DB260A128A110030F200F3000E
:100668001030F4000030F500A0300A128A11DB26A1
:100678000A128A11103083120313B1003108C7001F
:100688000730AB000030AC000A128A116E250A123E
:100698008A11831203132508AE002408AD000A123C
:1006A8008A11D6230A128A11831203132B08B10068
:1006B8003108C900722B0130B4070318B50A00309D
:1006C800B5073508803AFF0080307F02031D6E2B86
:1006D80008303402031C712B722B132B0800831271
:1006E8000313A6000A128A11F8250A128A11831226
:1006F8000313A701A8018312031327082804031D65
:10070800862B872BA42B2708A20022072607A300E5
:100718002308840083130008A400840A0008A500A5
:100728002409F2002509F3000A128A11B5250A12D4
:100738008A1101300A128A1117270A128A11C02B4E
:100748002708A20022072607A30023088400831392
:100758000008A400840A0008A5002409F20025095D
:10076800F3000A128A11B5250A128A1100300A12FA
:100778008A1117270A128A11013083120313A70757
:100788000318A80A0030A8072808803AFF0080301C
:100798007F02031DD12B08302702031CD42BD52B35
:1007A8007F2B080083120313B001AE1FDC2BDD2B57
:1007B800E42BAD09AE09AD0A0319AE0AB001B00ABF
:1007C800AC1FE72BE82BED2BAB09AC09AB0A0319DF
:1007D800AC0A2B082C040319F22BF32B222CAF01A3
:1007E800AF0A012C01300310AB0DAC0DFF3E031D09
:1007F800F72B0130FB007B08AF07AC1F042C052C3E
:10080800F62B2C082E02031D0B2C2B082D02031C83
:100818000E2C0F2C152C2B08AD022C08031CAE0334
:10082800AE0201300310AC0CAB0CFF3E031D162CBE
:100838000130AF02031D212C222C052C300803198E
:10084800262C272C2C2CAD09AE09AD0A0319AE0AAB
:100858002E08AC002D08AB00080083120313A0017A
:10086800A101A001A10183120313A201A301831214
:1008780003132008F2007207A03E840083130008C7
:10088800F300840A0008F400220AF5000130F6009B
:100898000030F700522C0310F60DF70DF50B4F2C16
:1008A80073087605F80074087705F9007808790464
:1008B800031D5F2C602C612C742C0130A2070318D7
:1008C800A30A0030A3072308803AFF0080307F0284
:1008D800031D702C08302202031C732C742C3B2C33
:1008E800013083120313A0070318A10A0030A107DF
:1008F8002108803AFF0080307F02031D852C1030CC
:100908002002031C882C892C372C0800831203131F
:100918004C03031D902C912CD82CBE01BF01CC0197
:100928000A128A113E200A128A11831203135408EC
:10093800031DAC2C5308031DAC2C5208031DAC2C12
:100948000F305102031DA82C031CAB2CAC2CD82C47
:100958000030D4000030D3000030D2000030D10085
:10096800460C031C0610031806144609BB003B0876
:10097800C6000130C7020A128A11AE260A128A116D
:100988000A128A119B220A128A110A128A11FE215E
:100998000A128A110A128A110D230A128A110A12DE
:1009A8008A1131240A128A110800003083120313B5
:1009B800A3000030A2000030A1000030A000721C8B
:1009C800E62CE72C002D760883120313A00777087E
:1009D80003110318013E0319F22CA107780803112B
:1009E8000318013E0319F92CA2077908031103180B
:1009F800013E0319002DA3070130FA000310F60D7C
:100A0800F70DF80DF90DFA0B022D01300310F50C56
:100A1800F40CF30CF20CFF3E031D0A2D7508740448
:100A280073047204031D192D1A2DE32C831203136A
:100A38002308F5002208F4002108F3002008F2003A
:100A480008000A128A1169270A128A110A128A11E1
:100A580059270A128A1183120313C5011030C400E2
:100A68004408C7000230C4004408C8000130F2003E
:100A78000030F3000A128A1184270A128A110730FB
:100A880083120313AB000030AC000A128A116E25E2
:100A98000A128A11831203132508AE002408AD0038
:100AA8000A128A11D6230A128A11831203132B08F9
:100AB800C4004408C9000A128A118A240A128A1139
:100AC800B0300A128A1173230A128A115F2D0A1292
:100AD8008A110C28831203136808F5006708F400CC
:100AE8006608F3006508F2004130F900C630F800E6
:100AF8004E30F7006D30F6000A128A11D9240A1216
:100B08008A11750883120313E8007408E700730854
:100B1800E6007208E5003930E50730300318313057
:100B2800E607003003180130E707003003180130EA
:100B3800E8076508A6006608A7006708A80068080F
:100B4800A9001030AA00290DA90CA80CA70CA60C06
:100B5800AA0BA72DFF302605A4007F302705A50086
:100B68000800FA01FB01FA01FB017B08803AFF004B
:100B780080307F02031DC22D10307A02031CC52D60
:100B8800C62DC72DF72D7A0AF4000130F500003084
:100B9800F600D12D0310F50DF60DF40BCE2D7208CD
:100BA8007505F70073087605F8007A0ADE2D03103C
:100BB800F80CF70CFF3E031DDB2D7708F900F90E42
:100BC8008312031307087906EF39790687000A129A
:100BD8008A11A1270A128A110130FA070318FB0AA1
:100BE8000030FB07B92D080083120313A001A101EF
:100BF800A001A101831203132008F2007207A03E8E
:100C0800840083130008F300840A0008F400200815
:100C1800F5007507553E84000008F600840A0008B0
:100C2800F70073087604F80074087704F9002008C0
:100C3800FA007A07B03E840078088000840A7908B0
:100C480080000130A0070318A10A0030A10721087D
:100C5800803AFF0080307F02031D342E08302002C6
:100C6800031C372E382EFE2D080083120313A00113
:100C7800A101A001A101831203132008F200720749
:100C8800553E840083130008F300840A0008F4002A
:100C98002008F5007507A03E84000008F600840AC5
:100CA8000008F70073087604F80074087704F90060
:100CB8002008FA007A07A03E840078088000840A99
:100CC800790880000130A0070318A10A0030A107A5
:100CD8002108803AFF0080307F02031D752E0830FE
:100CE8002002031C782E792E3F2E08000B1D7D2E26
:100CF8007E2E912E0B11013083120313D107003081
:100D080003180130D207003003180130D307003030
:100D180003180130D407CC01CC0A83120313861AB6
:100D2800962E972E9A2ECA01CA0ACB01061A9D2E14
:100D38009E2EA12ECA01CB01CB0A8619A42EA52E60
:100D4800A72EC501C50A71088A00700E8300FE0E21
:100D58007E0E0900831203134708031DB42EB52E17
:100D6800DA2E0A128A1139260A128A1110308312D1
:100D78000313B1003108C7000730AB000030AC00E6
:100D88000A128A116E250A128A1183120313250882
:100D9800AE002408AD000A128A11D6230A128A115D
:100DA800831203132B08B1003108C9000800F800AA
:100DB8007808F6007608F700EC2E7208F600770837
:100DC80084007608831380000130F6007608F70760
:100DD8000130F4020030031CF503F502740A031D08
:100DE800F92E750A031DF92EFA2EE12E0800023499
:100DF800023403340034033402340234003401343E
:100E0800033402340034023403340134003401342E
:100E18000134013401340334033400340034013420
:100E2800033401340034F30073080139F200F20E80
:100E38008312031308087206EF39720688000A1233
:100E48008A1195270A128A110A128A11AD270A12E5
:100E58008A110A128A119B270A128A1108007E0831
:100E68008A007F0882000A128A1133270A128A111F
:100E78008000840A04087D0603190034FF0A031958
:100E8800FE0A372F83160313061083120313061066
:100E98008316031308128812081388138312031386
:100EA800081288120813881308000A128A11772773
:100EB8000A128A110A128A1146270A128A110A127C
:100EC8008A11A7270A128A110800831203138101C5
:100ED8008B178B160B1183160313811101148114C0
:100EE80001158112080083160313071287120713CE
:100EF8008713831203130712871207138713080037
:100F0800720883120313E5007308E600E701E8019D
:100F1800080064008001840A0406031900340406EA
:100F28008E2F8312031388138817881308008312DF
:100F380003130713071707130800831203138713F4
:100F48008717871308008316031386160616861557
:100F5800080083120313081708130800013400342B
:040F6800003400341D
:02400E00793FF8
:00000001FF
