:020000040000FA
:060000000A128A110E280D
:10000800FE00030E83120313AE000A08AF000A12A3
:100018008A1186290A128A1111288313D030FD000B
:100028000330FE005F30FF00A03084000A128A11FE
:10003800F2230A128A115F30FD000430FE0071308D
:10004800FF005B3084000A128A11F2230A128A1117
:10005800D0308400F0300A128A114A240A128A1118
:10006800413084005B300A128A114A240A128A112C
:1000780083010A128A110529003083120313B00084
:10008800B1001030B2000030B300D0300A128A112B
:100098008F230A128A11831203135703031D55284D
:1000A800562862280430550203185B285C28622809
:1000B8000130B7003708D507D7016F285803031D4B
:1000C800662867286F28550803196B286C286F283D
:1000D8000130D502D8015408FF3EB700B70A5608C8
:1000E800B80002300310B80DFF3E031D7628031038
:1000F800380DA03E840083130008B900840A000864
:10010800BA0089280310B90DBA0DB70B862855080F
:10011800BB003B07D03E840039088000840A3A08B7
:1001280080005408FF3EB700B70A5608B8000230EE
:100138000310B80DFF3E031D9C280310380DA23E86
:1001480084000008B900840A0008BA00AE28031029
:10015800B90DBA0DB70BAB285508BB003B07D23E0B
:10016800840039088000840A3A0880005408FF3E59
:10017800B700B70A5608B80002300310B80DFF3EA2
:10018800031DC1280310380DA43E84000008B900DF
:10019800840A0008BA00D3280310B90DBA0DB70BAA
:1001A800D0285508BB003B07D43E8400390880009E
:1001B800840A3A0880005408FF3EB700B70A560878
:1001C800B80002300310B80DFF3E031DE6280310E7
:1001D800380DA63E84000008B900840A0008BA0059
:1001E800F8280310B90DBA0DB70BF5285508BB0050
:1001F8003B07D63E840039088000840A3A0880000C
:1002080008000A128A1114240A128A110A128A1181
:1002180052240A128A110A128A1124240A128A11F3
:1002280083120313D101D10A1030831603179400E7
:10023800140883120313D4000230831603179400A2
:10024800140883120313D5000A128A11B1230A1263
:100258008A110A128A1140200A128A118312031382
:10026800BF01C001831203133F08831603179400CC
:100278001407413E8400831300089500840A00088F
:100288009600831203133F08831603179700170776
:10029800D03E840000089800840A000899001508D8
:1002A80018049A00160819049B00831203133F08C8
:1002B800831603179C001C07E03E84001A08800080
:1002C800840A1B088000013083120313BF07031838
:1002D800C00A0030C0074008803AFF0080307F0223
:1002E800031D782908303F02031C7B297C29362905
:1002F800E0300A128A1140220A128A112D290A12A4
:100308008A110E280B1D89298A29CB290B11013046
:10031800D9070318DA0A0030DA070F305A024230D8
:1003280003195902031C99299A29DE29530C031C25
:100338000610031806145309AD002D08D300013028
:10034800D402D901DA015408031DAB29AC29DE29EE
:100358001030AD002D08D4000530A7000030A800EB
:100368000A128A11D2220A128A118312031321084F
:10037800AA002008A9000A128A11E5210A128A1186
:10038800831203132708AD002D08D600DE290B1CA5
:10039800CE29CF29DE29861AD229D329D629D701F1
:1003A800D70AD801061AD929DA29DD29D701D801AF
:1003B800D80A0B102F088A002E0E8300FE0E7E0E20
:1003C800090083120313AC01AA1FEB29EC29F329B6
:1003D800A909AA09A90A0319AA0AAC01AC0AA81F03
:1003E800F629F729FC29A709A809A70A0319A80AC1
:1003F800270828040319012A022A312AAB01AB0A6B
:10040800102A01300310A70DA80DFF3E031D062A70
:100418000130FD007D08AB07A81F132A142A052AFE
:1004280028082A02031D1A2A27082902031C1D2A44
:100438001E2A242A2708A9022808031CAA03AA029C
:1004480001300310A80CA70CFF3E031D252A01301C
:10045800AB02031D302A312A142A2C080319352A25
:10046800362A3B2AA909AA09A90A0319AA0A2A08A5
:10047800A8002908A700080083120313BE0009304A
:100488005106031D482A492A692AD101D10A51086F
:10049800BA003A073E07BB003B08FE3E84008313C0
:1004A8000008BC00840A0008BD003C09B0003D09F2
:1004B800B1000A128A118B220A128A1101300A121B
:1004C8008A11D2230A128A118A2A0130BA003A08FC
:1004D800D1075108BA003A073E07BB003B08FE3E69
:1004E800840083130008BC00840A0008BD003C098E
:1004F800B0003D09B1000A128A118B220A128A1132
:1005080000300A128A11D2230A128A1108008312B3
:100518000313B801B901B801B9013908803AFF00DD
:1005280080307F02031D9A2A10303802031C9D2A4E
:100538009E2A9F2AD12A83120313380AB200013057
:10054800B3000030B400AB2A0310B30DB40DB20BE6
:10055800A82A30083305B50031083405B600380A32
:10056800B82A0310B60CB50CFF3E031DB52A350892
:10057800B700B70E07083706EF39370687000A12A3
:100588008A1166240A128A11013083120313B807EC
:100598000318B90A0030B907912A08008312031317
:1005A8005E08F3005D08F2005C08F1005B08F000EB
:1005B8004130F700C630F6004E30F5006D30F400DB
:1005C8000A128A1119230A128A1173088312031353
:1005D800DE007208DD007108DC007008DB003930CD
:1005E800DB07303003183130DC07003003180130E6
:1005F800DD07003003180130DE075B08A2005C0845
:10060800A3005D08A4005E08A5001030A600250D13
:10061800A50CA40CA30CA20CA60B0B2BFF302205D7
:10062800A0007F302305A10008000030FC00003046
:10063800FB000030FA000030F900701C242B252B39
:100648003C2B7408F907750803110318013E0319B8
:100658002E2BFA07760803110318013E0319352BD0
:10066800FB07770803110318013E03193C2BFC070D
:100678000130F8000310F40DF50DF60DF70DF80B29
:100688003E2B01300310F30CF20CF10CF00CFF3E82
:10069800031D462B7308720471047004031D552B47
:1006A800562B212B7C08F3007B08F2007A08F10016
:1006B8007908F000080002340034023400340334AE
:1006C800003400340034003400340334003402347D
:1006D800003402340034013400340334003402346A
:1006E800003400340034003400340234003403345D
:1006F800003401340034013400340134003401344E
:10070800003401340034003400340334003403343A
:1007180000340034003483120313B5003508B400E4
:100728003408B600A22B3008B40036088400340818
:10073800831380000130B4003408B6070130B202D8
:100748000030031CB303B302320A031DAF2B330A74
:10075800031DAF2BB02B972B0800303083120313E7
:10076800C1000030C2004830C3000030C40044302B
:10077800C5000030C6002230C7000030C800443031
:10078800C9000030CA004830CB000030CC003030FF
:10079800CD000030CE00CF01D00108008312031332
:1007A800B10031080139B000B00E08083006EF3941
:1007B800300688000A128A115A240A128A110A126B
:1007C8008A116C240A128A110A128A1160240A12E8
:1007D8008A1108007E088A007F0882000A128A119E
:1007E800EE230A128A118000840A04087D06031980
:1007F8000034FF0A0319FE0AF22B831603130610AE
:1008080083120313061083160313081288120813A1
:100818008813831203130812881208138813080018
:100828000A128A1132240A128A110A128A11012420
:100838000A128A110A128A113F240A128A11080020
:100848008312031381018B178B160B118316031365
:1008580081150114811401158112080083160313F0
:1008680007128712071387138312031307128712BD
:100878000713871308008316031386160616061334
:10088800861383120313061386130800640080017D
:10089800840A04060319003404064B2C8B170B1723
:1008A8008B150B108316031381130800831203138F
:1008B8008813881788130800831203130713071770
:1008C8000713080083120313871387178713080079
:1008D8008312031308170813080001340034003486
:0208E8000034DA
:02400E00793FF8
:00000001FF
