:020000040000FA
:060000000A128A110C280F
:10000800FE00030EF0000A08F1000A128A154A2FB2
:100018000A128A110F288313DC30FD000E30FE000F
:10002800C030FF00C03084000A128A154C260A121C
:100038008A116B30FD000D30FE00E230FF006730A2
:1000480084000A128A154C260A128A11A0308400EC
:10005800C0300A128A15FD250A128A11453084001B
:1000680067300A128A15FD250A128A1183010A12BD
:100078008A11972C83120313A701A801A001A101DB
:100088000030A6000030A5000030A4000030A30016
:10009800A901AA0183120313A701A801831203135C
:1000A8004908F20002300310F20DFF3E031D5728E5
:1000B800C0307207F30027087307F400740884003F
:1000C80083130008F500290A6B280310F50CFF3E7E
:1000D800031D692875080139F6007608A200290869
:1000E800233E84002208F2002708033C013E7E28B4
:1000F8000310F20DFF3E031D7C2872080004F30074
:100108002908233E8400730880000130A7070318DC
:10011800A80A0030A8072808803AFF0080307F022C
:10012800031D982804302702031C9B289C2852286A
:10013800013083120313A9070318AA0A0030AA077B
:100148002A08803AFF0080307F02031DAD28043062
:100158002902031CB028B1284E280A298312031348
:10016800A901AA01831203132908233E84008313DB
:10017800001CBF28C028C1280229033029062A04E8
:10018800031DC728C828ED28A701A8018312031357
:100198002708233E840083130008F2000310720C22
:1001A800F3002708233E8400730880000130A70766
:1001B8000318A80A0030A8072808803AFF008030F2
:1001C8007F02031DE92804302702031CEC28ED28D0
:1001D800CA28013083120313A9070318AA0A00309A
:1001E800AA072A08803AFF0080307F02031DFE28F4
:1001F80004302902031C01290229B6280130831280
:100208000313A0070318A10A0030A10783120313E0
:100218002108803AFF0080307F02031D1529033032
:100228002002031C18291929B22883120313230852
:100238000F39031D202921292E292408F2007208CC
:10024800A3002508F2007208A4002608F20072082C
:10025800A500A601A901AA01831203132908233EB8
:10026800840083130008F2004908F30002300310E9
:10027800F30DFF3E031D3B29C0307307F400290826
:100288007407F50075088400720880000130A9071A
:100298000318AA0A0030AA072A08803AFF0080300B
:1002A8007F02031D592904302902031C5C295D299A
:1002B800302908000030F200F3001030F40000305C
:1002C800F50057300A128A15F9260A128A11831284
:1002D80003134708FF3EA000A00A4908A100013007
:1002E8000310A10DFF3E031D74290310210DC03E0C
:1002F800840083130008A200A30185290310A20D1E
:10030800A30DA00B82294808A4002407573E8400A7
:1003180022088000840A230880004708FF3EA000C6
:10032800A00A4908A10001300310A10DFF3E031DDA
:1003380098290310210DC13E84000008A200A301E2
:10034800A8290310A20DA30DA00BA5294808A400F5
:100358002407593E840022088000840A230880006C
:100368004708FF3EA000A00A4908A1000130031079
:10037800A10DFF3E031DBB290310210DC23E8400C1
:100388000008A200A301CB290310A20DA30DA00B06
:10039800C8294808A40024075B3E8400220880007E
:1003A800840A230880004708FF3EA000A00A4908E5
:1003B800A10001300310A10DFF3E031DDE2903102B
:1003C800210DC33E84000008A200A301EE290310FA
:1003D800A20DA30DA00BEB294808A40024075D3E3D
:1003E800840022088000840A230880000800831201
:1003F8000313AC01AC0AAF01023083120313AA0045
:100408000430A900B930A800A80B082AA90B082AAB
:10041800AA0B082A0F2AF501F60101300A128A11DF
:1004280067260A128A110D3083120313A900FB30C4
:10043800A800A80B1D2AA90B1D2AF501F6010130F9
:100448000A128A1167260A128A110D3083120313C1
:10045800A900FB30A800A80B2F2AA90B2F2AF50109
:10046800F60101300A128A1167260A128A110D3024
:1004780083120313A900FB30A800A80B412AA90B7B
:10048800412AF501F50AF60101300A128A11672698
:100498000A128A110D3083120313A900FB30A80039
:1004A800A80B542AA90B542AF501F60100300A12A8
:1004B8008A111D260A128A110A128A1570260A1232
:1004C8008A11F50101300A128A11C3270A128A110A
:1004D800F501F50AF601F60A01300A128A111D26FD
:1004E8000A128A110A128A158A260A128A11080023
:1004F800F40001307405F200831203130508720634
:10050800FE39720685007408F2000310720C013976
:10051800F300F30D05087306FD39730685007408AA
:10052800F20002300310F20CFF3E031D962A7208F7
:100538000139F300F30DF30D05087306FB39730653
:1005480085007408F20003300310F20CFF3E031D0F
:10055800A82A72080139F300F30DF30DF30D05080D
:100568007306F739730685007408F2000430031027
:10057800F20CFF3E031DBB2A72080139F300F30E8B
:1005880005087306EF39730685007408F200053014
:100598000310F20CFF3E031DCC2A72080139F30048
:1005A800F30EF30D05087306DF397306850074082A
:1005B800F20006300310F20CFF3E031DDE2A013064
:1005C8007205F30009087306FE397306890074087A
:1005D800F20007300310F20CFF3E031DEE2A7208EA
:1005E8000139F300F30D09087306FD397306890014
:1005F8000800831203134808B100B2013108B9009A
:100608003208BA005D2B831203133908B100310791
:10061800A03E840083130008B200840A0008B300D7
:100628003908B4003407573E84000008B500840A2E
:100638000008B6000310B60CB50C32083505B70033
:1006480033083605B8003708380403192C2B2D2B2E
:10065800572B0A128A157E270A128A111030831224
:100668000313B1003108C7000230B1003108C800D7
:100678000730AB000030AC000A128A11F5260A12C6
:100688008A11831203132508AE002408AD000A124C
:100698008A113C240A128A11831203132B08B10011
:1006A8003108C900722B0130B9070318BA0A0030A3
:1006B800BA074808043EB100003003180130B20000
:1006C8003A08803AB3003208803A3302031D6E2B91
:1006D80031083902031C712B722B072B0800831277
:1006E8000313B401B501B401B5018312031334082F
:1006F800B1003107A03E840083130008B200840AC9
:100708000008B300B31F892B8A2BC52B0030F200D9
:10071800F3001030F4000030F50057300A128A1543
:10072800F9260A128A110030F200F3001030F400A2
:100738000030F500A0300A128A15F9260A128A112B
:10074800103083120313B1003108C7000730AB0023
:100758000030AC000A128A11F5260A128A11831297
:1007680003132508AE002408AD000A128A113C24A0
:100778000A128A11831203132B08B1003108C90029
:10078800D82B0130B4070318B50A0030B50735086F
:10079800803AFF0080307F02031DD42B08303402DA
:1007A800031CD72BD82B792B080083120313A60020
:1007B8000A128A15BF270A128A1183120313A70186
:1007C800A8018312031327082804031DEC2BED2B23
:1007D8000A2C2708A20022072607A3002308840062
:1007E80083130008A400840A0008A5002409F20065
:1007F8002509F3000A128A1180270A128A1101308A
:100808000A128A15A4260A128A11262C2708A20081
:1008180022072607A3002308840083130008A400E6
:10082800840A0008A5002409F2002509F3000A1229
:100838008A1180270A128A1100300A128A15A42602
:100848000A128A11013083120313A7070318A80A92
:100858000030A8072808803AFF0080307F02031D77
:10086800372C08302702031C3A2C3B2CE52B0800B8
:1008780083120313B001AE1F422C432C4A2CAD093E
:10088800AE09AD0A0319AE0AB001B00AAC1F4D2C6F
:100898004E2C532CAB09AC09AB0A0319AC0A2B0834
:1008A8002C040319582C592C882CAF01AF0A672C3B
:1008B80001300310AB0DAC0DFF3E031D5D2C013064
:1008C800FB007B08AF07AC1F6A2C6B2C5C2C2C0838
:1008D8002E02031D712C2B082D02031C742C752C61
:1008E8007B2C2B08AD022C08031CAE03AE02013092
:1008F8000310AC0CAB0CFF3E031D7C2C0130AF0287
:10090800031D872C882C6B2C300803198C2C8D2CFC
:10091800922CAD09AE09AD0A0319AE0A2E08AC0037
:100928002D08AB0008000A128A1527260A128A1118
:100938000A128A155B260A128A110A128A11FB21E9
:100948000A128A1183120313C5011030C400440827
:10095800C7000230C4004408C800CD01CE010230EF
:10096800F2000030F3000A128A1505260A128A11CD
:10097800073083120313AB000030AC000A128A114F
:10098800F5260A128A11831203132508AE002408DB
:10099800AD000A128A113C240A128A118312031329
:1009A8002B08C4004408C9000A128A11E7240A1255
:1009B8008A11B0300A128A11D9230A128A11D82C46
:1009C8000A128A110C28831203134C03031DED2C01
:1009D800EE2C352DBE01BF01CC010A128A11362535
:1009E8000A128A11831203135608031D092D55088C
:1009F800031D092D5408031D092D0F305302031D33
:100A0800052D031C082D092D352D0030D60000308A
:100A1800D5000030D4000030D300460C031C06106B
:100A2800031806144609BB003B08C6000130C7027C
:100A38000A128A1519270A128A110A128A11FD2226
:100A48000A128A110A128A115E210A128A110A12DE
:100A58008A1173230A128A110A128A11AE260A12FF
:100A68008A11080083120313450803193C2D3D2DF4
:100A7800492DC5010A128A113E200A128A110A124A
:100A88008A115E210A128A11842D4A03031D4D2DF5
:100A98004E2D692DCA010A128A150E260A128A11CC
:100AA80083120313AB000A128A113C270A128A1117
:100AB800831203132B040319622D632D642D842DD7
:100AC8000130AB002B08C807432D4B03031D6D2DC8
:100AD8006E2D842D48080319722D732D842DCB019A
:100AE8000A128A1185250A128A11013A031D7D2DE1
:100AF8007E2D7F2D842D013083120313C802432DD0
:100B08000800831203134808F200F3017208FA0080
:100B18007308FB00B82D7A08F20072079E3E840025
:100B280083130008F300840A0008F4007A08F5002B
:100B38007507573E84000008F600840A0008F7008D
:100B480073087605F80074087705F90078087904C1
:100B58000319AF2DB02DB22D0130D02D0130FA0779
:100B68000318FB0A0030FB07831203134808043EEE
:100B7800F200003003180130F3007B08803AF400DB
:100B88007308803A7402031DCB2D72087A02031C85
:100B9800CE2DCF2D8F2D0030080000308312031387
:100BA800A3000030A2000030A1000030A000721C99
:100BB800DE2DDF2DF82D760883120313A0077708A2
:100BC80003110318013E0319EA2DA1077808031140
:100BD8000318013E0319F12DA20779080311031820
:100BE800013E0319F82DA3070130FA000310F60D92
:100BF800F70DF80DF90DFA0BFA2D01300310F50C6D
:100C0800F40CF30CF20CFF3E031D022E750874045D
:100C180073047204031D112E122EDB2D831203138D
:100C28002308F5002208F4002108F3002008F20048
:100C3800080083120313A0000830F7007708A50006
:100C48000A128A15DA250A128A110A128A15DE256D
:100C58000A128A117508031D322E332E382E83127C
:100C68000313A101A2013E2E023083120313A10037
:100C78000030A2002008031D422E432E462EA30159
:100C8800A4014A2E0430A3000030A4007608031DF6
:100C98004E2E502E0130512E0030250423042104FD
:100CA800F7007708A50025080A128A117C220A1283
:100CB8008A110D30F800FB30F700F70B612EF80BA6
:100CC800612E662E080083120313A0002030F7005F
:100CD8007708A7000A128A15DA250A128A110A1259
:100CE8008A15DE250A128A117608031D7C2E7D2EB0
:100CF800822E83120313A101A201882E04308312CD
:100D08000313A1000030A2007508031D8C2E8D2E40
:100D1800902EA301A401942E0830A3000030A40053
:100D28002008031D982E992E9C2EA501A601A02E01
:100D38001030A5000030A60027082504230421044C
:100D4800F7007708A70027080A128A117C220A12DE
:100D58008A110800F901FA01F601F60AF701F8010B
:100D6800F901FA017908F2007207A03E84008313A2
:100D78000008F300840A0008F400770AC62E03105E
:100D8800F40CF30CFF3E031DC32E73087605F50023
:100D98007508F6000130F9070318FA0A0030FA0757
:100DA8007A08803AFF0080307F02031DDD2E08306C
:100DB8007902031CE02EE12EB62E0130F707031846
:100DC800F80A0030F8077808803AFF0080307F0280
:100DD800031DF02E10307702031CF32EF42EB42ED0
:100DE8000800831203136A08F5006908F40068080C
:100DF800F3006708F2004130F900C630F8004E30C1
:100E0800F7006D30F6000A128A11D1250A128A11EC
:100E1800750883120313EA007408E9007308E800F0
:100E28007208E7003930E707303003183130E80737
:100E3800003003180130E907003003180130EA07D1
:100E48006708A6006808A7006908A8006A08A9003A
:100E58001030AA00290DA90CA80CA70CA60CAA0BE7
:100E68002E2FFF302605A4007F302705A500080097
:100E7800831203134808033EFA00003003180130B8
:100E8800FB006F2F7A08F2007207A23E84008313DA
:100E98000008F300840A0008F4007A08F5007507D2
:100EA800573E84000008F600840A0008F70073081B
:100EB8007605F80074087705F900780879040319AD
:100EC800662F672F692F01307F2FFF30FA0703182D
:100ED800FB0AFF30FB077B08803AF2008030720281
:100EE800031D7A2F8312031348087A0203187D2FF3
:100EF8007E2F462F00300800FA01FB01FA01FB01A2
:100F08007B08803AFF0080307F02031D8D2F103050
:100F18007A02031C902F912F922FC22F7A0AF40085
:100F28000130F5000030F6009C2F0310F50DF60D8A
:100F3800F40B992F72087505F70073087605F80009
:100F48007A0AA92F0310F80CF70CFF3E031DA62FF1
:100F58007708F900F90E8312031307087906EF39A9
:100F6800790687000A128A15F1250A128A110130BA
:100F7800FA070318FB0A0030FB07842F0800F80063
:100F88000430F6007608FB000A128A15DA250A12E0
:100F98008A110A128A15DE250A128A117808031D99
:100FA800D62FD72FDA2FF901FA01DE2F0230F900F8
:100FB8000030FA007508031DE22FE42F0130E52FF9
:100FC80000307B047904F6007608FB007B080A12DF
:100FD8008A117C220A128A110D30F700FB30F600C4
:100FE800F60BF42FF70BF42FF92F080083120313D5
:080FF800881388178813080014
:101BB400831203130710080083120313871008000D
:101BC400013400340034003483120313081708135B
:101BD400080083160313861606168615080083125A
:101BE400031387138717871308008312031307133C
:101BF40007170713080064008001840A0406031908
:101C040000340406FE2D720883120313E7007308E0
:101C1400E800E901EA010800831203136508660479
:101C24000319152E162E182E0130192E0030080017
:101C340083160313071287120713871383120313E0
:101C440007128712071387130800831203138101F5
:101C54008B178B160B118316031381110114811436
:101C6400011581120800831603130610831203134F
:101C7400061083160313081288120813881383129C
:101C84000313081288120813881308007E088A00B8
:101C94007F0882000A128A1548260A128A158000D3
:101CA400840A04087D0603190034FF0A0319FE0A96
:101CB4004C2E0A128A15DC260A128A150A128A1573
:101CC4001A260A128A150A128A1535260A128A1544
:101CD4000A128A15EB250A128A1508000A128A15B7
:101CE400DA250A128A150A128A15DE250A128A15BD
:101CF40001300A128A117C220A128A150D30F6006C
:101D0400FB30F500F50B842EF60B842E892E08008B
:101D14000A128A15DA250A128A150A128A15DE258C
:101D24000A128A1502300A128A117C220A128A15B2
:101D34000D30F600FB30F500F50B9E2EF60B9E2EB3
:101D4400A32E0800F30073080139F200F20E831287
:101D5400031308087206EF39720688000A128A1102
:101D6400FA270A128A150A128A15E6250A128A1512
:101D74000A128A15F7250A128A1508000234023459
:101D840003340034033402340234003401340334A1
:101D94000234003402340334013400340134013495
:101DA4000134013403340334003400340134033483
:101DB400013400340730831603139F000510851087
:101DC4000511851105128512091089100710871055
:101DD40007118312031305108510051185110512CF
:101DE4008512091089100710871007110800F800E0
:101DF4007808F6007608F7000A2F7208F6007708CC
:101E040084007608831380000130F6007608F70713
:101E14000130F4020030031CF503F502740A031DBB
:101E2400172F750A031D172F182FFF2E0800831272
:101E340003134708031D1F2F202F492F0A128A1549
:101E44007E270A128A15103083120313B100310859
:101E5400C7000230B1003108C8000730AB000030C1
:101E6400AC000A128A11F5260A128A15831203138A
:101E74002508AE002408AD000A128A113C240A1277
:101E84008A15831203132B08B1003108C900080016
:101E94000B1D4D2F4E2F612F0B1101308312031395
:101EA400D307003003180130D40700300318013081
:101EB400D507003003180130D607CC01CC0A8312B1
:101EC4000313861A662F672F6A2FCA01CA0ACB0129
:101ED400061A6D2F6E2F712FCA01CB01CB0A8619FA
:101EE400742F752F772FC501C50A71088A00700EEB
:101EF4008300FE0E7E0E090083120313A001A101CC
:101F0400A001A101831203132008F2007207573EB7
:101F1400840083130008F300840A0008F4002008F6
:101F2400F5007507A03E84000008F600840A000846
:101F3400F70073087604F80074087704F9002008A1
:101F4400FA007A07A03E840078088000840A7908A1
:101F540080000130A0070318A10A0030A10721085E
:101F6400803AFF0080307F02031DBA2F0830200220
:101F7400031CBD2FBE2F842F080083120313A0015E
:101F8400A101A001A101831203132008F20072072A
:101F9400A03E840083130008F300840A0008F400C0
:101FA4002008F5007507573E84000008F600840AEF
:101FB4000008F70073087604F80074087704F90041
:101FC4002008FA007A07B03E840078088000840A6A
:101FD400790880000130A0070318A10A0030A10786
:101FE4002108803AFF0080307F02031DFB2F083058
:0C1FF4002002031CFE2FFF2FC52F080049
:02400E00793FF8
:00000001FF
