:020000040000FA
:060000000A128A110C280F
:10000800FE00030EF0000A08F1000A128A110B2CF8
:100018000A128A110F288313D030FD000330FE0026
:10002800AC30FF00A03084000A128A119A240A1208
:100038008A116430FD000530FE001930FF00603081
:1000480084000A128A119A240A128A11D030840074
:10005800F0300A128A11F2240A128A1145308400FB
:1000680060300A128A11F2240A128A1183010A12D4
:100078008A11DC2B831203135D03031D44284528D2
:100088006C290F305F02423003195E02031C4D28B1
:100098004E286929570C031C061003180614570923
:1000A800B1003108D7000130D802DE01DF0158085D
:1000B800031D5F2860287E281030B1003108D80061
:1000C8000530AB000030AC000A128A1122230A1254
:1000D8008A11831203132508AE002408AD000A1202
:1000E8008A1130220A128A11831203132B08B100D5
:1000F8003108DA000A128A116D210A128A11831254
:100108000313BE01BF01831203133E08B100310778
:10011800453E840083130008B200840A0008B30037
:100128003E08B4003407D03E84000008B500840AB5
:100138000008B60032083504B70033083604B800A2
:100148003E08B9003907E03E840037088000840A79
:10015800380880000130BE070318BF0A0030BF0707
:100168003F08803AFF0080307F02031DBD28083019
:100178003E02031CC028C12887288312031359088C
:10018800B100B2013108BE003208BF005429831201
:1001980003133E08B1003107453E8400831300086D
:1001A800B200840A0008B3003E08B4003407D03E09
:1001B80084000008B500840A0008B6000310B60CD5
:1001C800B50C32083505BA0033083605BB003A08C5
:1001D8003B040319F028F1284E29BC01BD01831204
:1001E80003133C08B1003107D03E84008313000894
:1001F800B200840A0008B3003C08B4003407453E46
:1002080084000008B500840A0008B60032083504E6
:10021800B70033083604B8003C08B9003907453E32
:10022800840037088000840A380880000130BC0741
:100238000318BD0A0030BD073D08803AFF00803032
:100248007F02031D292908303C02031C2C292D2973
:10025800F328103083120313B1003108D800053099
:10026800AB000030AC000A128A1122230A128A114C
:10027800831203132508AE002408AD000A128A1160
:1002880030220A128A11831203132B08B100310895
:10029800DA0069290130BE070318BF0A0030BF071A
:1002A8005908043EB100003003180130B2003F087D
:1002B800803AB3003208803A3302031D65293108B9
:1002C8003E02031C68296929CB2883120313DD0128
:1002D80008000030F200F3001030F4000030F500A0
:1002E800D0300A128A115A240A128A11831203136F
:1002F8005B03031D802981298D29043059020318C5
:10030800862987298D290130A0002008D907DB011B
:100318009A295C03031D912992299A2959080319DE
:10032800962997299A290130D902DC015808FF3EFD
:10033800A000A00A5A08A10002300310A10DFF3E38
:10034800031DA1290310210DA03E8400831300087A
:10035800A200840A0008A300B4290310A20DA30D6B
:10036800A00BB1295908A4002407D03E8400220814
:100378008000840A230880005808FF3EA000A00AD5
:100388005A08A10002300310A10DFF3E031DC72922
:100398000310210DA23E84000008A200840A000870
:1003A800A300D9290310A20DA30DA00BD629590823
:1003B800A4002407D23E840022088000840A23086F
:1003C80080005808FF3EA000A00A5A08A100023089
:1003D8000310A10DFF3E031DEC290310210DA43EBF
:1003E80084000008A200840A0008A300FE29031064
:1003F800A20DA30DA00BFB295908A4002407D43E85
:10040800840022088000840A230880005808FF3EE0
:10041800A000A00A5A08A10002300310A10DFF3E57
:10042800031D112A0310210DA63E84000008A20016
:10043800840A0008A300232A0310A20DA30DA00B11
:10044800202A5908A4002407D63E840022088000E8
:10045800840A23088000080083120313B001AE1F2A
:10046800362A372A3E2AAD09AE09AD0A0319AE0A63
:10047800B001B00AAC1F412A422A472AAB09AC098D
:10048800AB0A0319AC0A2B082C0403194C2A4D2A71
:100498007C2AAF01AF0A5B2A01300310AB0DAC0D0B
:1004A800FF3E031D512A0130FB007B08AF07AC1F3C
:1004B8005E2A5F2A502A2C082E02031D652A2B0863
:1004C8002D02031C682A692A6F2A2B08AD022C0802
:1004D800031CAE03AE0201300310AC0CAB0CFF3EA4
:1004E800031D702A0130AF02031D7B2A7C2A5F2A74
:1004F80030080319802A812A862AAD09AE09AD0A77
:100508000319AE0A2E08AC002D08AB000800003015
:1005180083120313A3000030A2000030A1000030B2
:10052800A000721C982A992AB22A7608831203130B
:10053800A007770803110318013E0319A42AA1078D
:10054800780803110318013E0319AB2AA20779089A
:1005580003110318013E0319B22AA3070130FA0058
:100568000310F60DF70DF80DF90DFA0BB42A01304A
:100578000310F50CF40CF30CF20CFF3E031DBC2A1F
:100588007508740473047204031DCB2ACC2A952AB7
:10059800831203132308F5002208F4002108F3004E
:1005A8002008F200080083120313A400093055063E
:1005B800031DDF2AE02A002BD501D50A5508A00023
:1005C80020072407A1002108FE3E840083130008A9
:1005D800A200840A0008A3002209F2002309F300FC
:1005E8000A128A1169230A128A1101300A128A1121
:1005F8007A240A128A11212B0130A0002008D5077D
:100608005508A00020072407A1002108FE3E840009
:1006180083130008A200840A0008A3002209F2003C
:100628002309F3000A128A1169230A128A11003079
:100638000A128A117A240A128A11080083120313F3
:100648006308F5006208F4006108F3006008F2002E
:100658004130F900C630F8004E30F7006D30F60032
:100668000A128A118B220A128A117508831203133F
:10067800E3007408E2007308E1007208E000393012
:10068800E007303003183130E1070030031801303B
:10069800E207003003180130E3076008A60061088C
:1006A800A7006208A8006308A9001030AA00290D55
:1006B800A90CA80CA70CA60CAA0B5B2BFF302605CF
:1006C800A4007F302705A5000800FA01FB01FA0104
:1006D800FB017B08803AFF0080307F02031D762BE8
:1006E80010307A02031C792B7A2B7B2BAB2B7A0ADE
:1006F800F4000130F5000030F600852B0310F50DED
:10070800F60DF40B822B72087505F7007308760551
:10071800F8007A0A922B0310F80CF70CFF3E031D21
:100728008F2B7708F900F90E83120313070879064F
:10073800EF39790687000A128A110E250A128A11E2
:100748000130FA070318FB0A0030FB076D2B08007D
:1007580002340034023400340334003400340034EA
:1007680000340034033400340234003402340034DA
:1007780001340034033400340234003400340034CB
:1007880000340034023400340334003401340034BB
:1007980001340034013400340134003401340034AD
:1007A800003400340334003403340034003400349B
:1007B8000A128A11BC240A128A110A128A11FA240E
:1007C8000A128A110A128A11CC240A128A11831277
:1007D8000313D501D50A1030C4004408D8000230EC
:1007E800C4004408D9000A128A1137240A128A114F
:1007F8000A128A113E200A128A11E0300A128A115E
:10080800D7220A128A11FC2B0A128A110C280B1DF6
:100818000E2C0F2C1B2C0B11013083120313DE0737
:100828000318DF0A0030DF07DD01DD0A302C0B1C5E
:100838001E2C1F2C302C83120313861A242C252CD3
:10084800282CDB01DB0ADC01061A2B2C2C2C2F2C84
:10085800DB01DC01DC0A0B1071088A00700E8300D2
:10086800FE0E7E0E0900033083120313C50000300C
:10087800C6000330C7000030C8000330C90000308C
:10088800CA000330CB000030CC000330CD0000306C
:10089800CE000330CF000030D0000330D10000304C
:1008A800D2000330D3000030D4000800F7007708E6
:1008B800F6007608F8006B2C7208F60078088400B9
:1008C8007608831380000130F6007608F8070130B7
:1008D800F4020030031CF503F502740A031D782C9A
:1008E800750A031D782C792C602C0800F300730816
:1008F8000139F200F20E8312031308087206EF3969
:10090800720688000A128A1102250A128A110A122E
:100918008A1114250A128A110A128A1108250A1244
:100928008A1108007E088A007F0882000A128A114C
:1009380096240A128A118000840A04087D06031985
:100948000034FF0A0319FE0A9A2C831603130610B3
:100958008312031306108316031308128812081350
:1009680088138312031308128812081388130800C7
:100978000A128A11DA240A128A110A128A11A9247F
:100988000A128A110A128A11E7240A128A11080027
:100998008312031381018B178B160B118316031314
:1009A800811501148114011581120800831603139F
:1009B800071287120713871383120313071287126C
:1009C80007138713080083160313861606160613E3
:1009D800861383120313061386130800640080012C
:1009E800840A0406031900340406F32C8B170B172A
:1009F8008B150B108316031381130800831203133E
:100A0800881388178813080083120313071307171E
:100A18000713080083120313871387178713080027
:100A28008312031308170813080001340034003434
:020A3800003488
:02400E00793FF8
:00000001FF
