:020000040000FA
:060000000A128A11EE2F26
:100C080083120313881108008312031306160612B1
:100C180008008312031386128616861208008312B0
:100C28000313881288168812080083120313081207
:100C38000816081208000134003400340134003466
:100C480001340134003401340034FF34FF34AA3451
:100C5800963496347E088A007F0882000A128A1128
:100C68002E260A128A118000840A04087D060319B8
:100C78000034FF0A0319FE0A322E831603130610E6
:100C88008610061106128612081188110812881299
:100C98008312031306108610061106128612081115
:100CA8008811081288120800F10071080139F00053
:100CB800F00D8312031306087006FD3970068600CE
:100CC8000A128A110D260A128A110A128A11082696
:100CD8000A128A110A128A1119260A128A110800A0
:100CE8000A128A1141260A128A1100300A128A1140
:100CF80093260A128A110030F000F1000A128A11B4
:100D0800D2260A128A118312031306140A128A11B0
:100D18001B270A128A118A2E0A128A110028F50046
:100D2800F601F7010130F000760A9C2E0310F00D51
:100D3800FF3E031D9A2E70087505F100760AA62E4F
:100D48000310F10CFF3E031DA42E7108F200720877
:100D5800F400740C83120313031C86100318861402
:100D68000A128A110D260A128A110130F607031891
:100D7800F70A0030F7077708803AFF0080307F02D3
:100D8800031DC82E08307602031CCB2ECC2E962EBF
:100D98000A128A1108260A128A110800FA01FB01B0
:100DA800FA01FB017B08803AFF0080307F02031DB7
:100DB800DF2E10307A02031CE22EE32EE42E152FCC
:100DC8007A0AF2000130F3000030F400EE2E03102E
:100DD800F30DF40DF20BEB2E70087305F500710896
:100DE8007405F6007A0AFB2E0310F60CF50CFF3E8C
:100DF800031DF82E7508F700F70DF70D831203137E
:100E080008087706FB39770688000A128A11132624
:100E18000A128A110130FA070318FB0A0030FB078F
:100E2800D62E0A128A1104260A128A110800CC2F1B
:100E3800CF30F000FF30F1000A128A11D2260A12D0
:100E48008A1101300A128A1158260A128A110230B0
:100E580083120313A8000030A900ED2FB730F0006B
:100E6800FF30F1000A128A11D2260A128A110030C4
:100E78000A128A1158260A128A11033083120313A0
:100E8800A8000030A900ED2FBB30F000FF30F100C2
:100E98000A128A11D2260A128A1100300A128A11FD
:100EA80058260A128A11043083120313A80000304E
:100EB800A900ED2FDD30F000FF30F1000A128A1191
:100EC800D2260A128A1100300A128A1158260A12EA
:100ED8008A11053083120313A8000030A900ED2FF2
:100EE800BB30F000FF30F1000A128A11D2260A1234
:100EF8008A1100300A128A1158260A128A110630FD
:100F080083120313A8000030A900ED2FB730F000BA
:100F1800FF30F1000A128A11D2260A128A11003013
:100F28000A128A1158260A128A11073083120313EB
:100F3800A8000030A900ED2FCF30F000FF30F100FD
:100F48000A128A11D2260A128A1100300A128A114C
:100F580058260A128A11083083120313A800003099
:100F6800A900ED2FFF30F000FF30F1000A128A11BE
:100F7800D2260A128A1100300A128A1158260A1239
:100F88008A11013083120313A8000030A900ED2F45
:100F9800831203132908003A0319D32FED2F2808C9
:100FA800013A03191C2F033A0319322F013A031986
:100FB800482F073A03195E2F013A0319742F033A91
:100FC80003198A2F013A0319A02F0F3A0319B62FD4
:100FD800ED2F080083132F30FD000630FE001F3070
:100FE800FF00203084000A128A1132260A128A1160
:080FF80083010A128A11742E14
:02400E00793FF8
:00000001FF
