:020000040000FA
:060000000A128A110C280F
:10000800FE00030EF0000A08F1000A128A11432DBF
:100018000A128A110F288317C830FD000530FE0028
:100028000B30FF00903084000A128A11AF250A12A3
:100038008A1183136330FD000630FE003730FF005D
:100048005F3084000A128A11AF250A128A11A03083
:100058008400C0300A128A1110260A128A1144300C
:1000680084005F300A128A1110260A128A1183014D
:100078000A128A112F2B831203134C03031D4528E0
:100088004628642ABA01BB010F304E0242300319D8
:100098004D02031C502851285C2A460C031C0610EC
:1000A800031806144609B1003108C6000130C7021A
:1000B800CD01CE014708031D62286328BF28BA0175
:1000C800BB01831203133A08B1003107A03E840034
:1000D80083130008B200840A0008B3003A08B40089
:1000E80034074F3E84000008B500840A0008B600B3
:1000F80032083504B70033083604B8003A08B900A6
:1001080039074F3E840037088000840A3808800089
:100118000130BA070318BB0A0030BB073B08803A16
:10012800FF0080307F02031D9B2808303A02031C21
:100138009E289F286528103083120313B1003108C8
:10014800C7000730AB000030AC000A128A118124C6
:100158000A128A11831203132508AE002408AD0081
:100168000A128A118F230A128A11831203132B0889
:10017800B1003108C900BC01BD01831203133C085A
:10018800B10031074F3E840083130008B200840A8F
:100198000008B3003C08B4003407A03E84000008FF
:1001A800B500840A0008B60032083504B7003308E1
:1001B8003604B8003C08B9003907B03E8400370857
:1001C8008000840A380880000130BC070318BD0A83
:1001D8000030BD073D08803AFF0080307F02031DD4
:1001E800F72808303C02031CFA28FB28C128831290
:1001F80003134808B100B2013108BC003208BD0041
:100208008E29831203133C08B10031074F3E840046
:1002180083130008B200840A0008B3003C08B40045
:100228003407A03E84000008B500840A0008B60020
:100238000310B60CB50C32083505B700330836057F
:10024800B8003708380403192A292B298829BA0144
:10025800BB01831203133A08B1003107A03E8400A2
:1002680083130008B200840A0008B3003A08B400F7
:1002780034074F3E84000008B500840A0008B60021
:1002880032083504B70033083604B8003A08B90014
:1002980039074F3E840037088000840A38088000F8
:1002A8000130BA070318BB0A0030BB073B08803A85
:1002B800FF0080307F02031D632908303A02031CC7
:1002C800662967292D29103083120313B1003108DC
:1002D800C7000730AB000030AC000A128A11812435
:1002E8000A128A11831203132508AE002408AD00F0
:1002F8000A128A118F230A128A11831203132B08F8
:10030800B1003108C900A3290130BC070318BD0A90
:100318000030BD074808043EB10000300318013022
:10032800B2003D08803AB3003208803A3302031D18
:100338009F2931083C02031CA229A32905298312FD
:100348000313BC01BD01831203133C08B10031073C
:100358004F3E840083130008B200840A0008B300EB
:10036800B31FB729B829F3290030F200F300103081
:10037800F4000030F500A0300A128A116F250A1225
:100388008A110030F200F3001030F4000030F5005C
:100398004F300A128A116F250A128A1110308312FF
:1003A8000313B1003108C7000730AB000030AC00C0
:1003B8000A128A1181240A128A118312031325084A
:1003C800AE002408AD000A128A118F230A128A117E
:1003D800831203132B08B1003108C900062A013023
:1003E800BC070318BD0A0030BD073D08803AFF006E
:1003F80080307F02031D022A08303C02031C052AB4
:10040800062AA72983120313BC01BD018312031313
:10041800BA01BB01831203133C08B10031074F3EF8
:10042800840083130008B200840A0008B3003A0A63
:10043800B4000130B5000030B600252A0310B50D10
:10044800B60DB40B222A32083505B7003308360535
:10045800B80037083804031D322A332A342A472AB9
:100468000130BA070318BB0A0030BB073B08803AC3
:10047800FF0080307F02031D432A08303A02031C24
:10048800462A472A0E2A013083120313BC07031891
:10049800BD0A0030BD073D08803AFF0080307F026A
:1004A800031D582A10303C02031C5B2A5C2A0A2AC6
:1004B8000A128A1165220A128A1183120313CC01C7
:1004C80008000030F200F3001030F4000030F500AE
:1004D800A0300A128A116F250A128A118312031397
:1004E8004A03031D782A792A852A0430480203180A
:1004F8007E2A7F2A852A0130A0002008C807CA0161
:10050800922A4B03031D892A8A2A922A480803192A
:100518008E2A8F2A922A0130C802CB014708FF3E53
:10052800A000A00A4908A10002300310A10DFF3E57
:10053800031D992A0310210D903E8400831700089B
:10054800A200840A0008A300AC2A0310A20DA30D80
:10055800A00BA92A4808A4002407A03E840022086A
:1005680083138000840A230880004708FF3EA00008
:10057800A00A4908A10002300310A10DFF3E031D87
:10058800C02A0310210D923E840083170008A200A0
:10059800840A0008A300D32A0310A20DA30DA00B00
:1005A800D02A4808A4002407A23E84002208831306
:1005B8008000840A230880004708FF3EA000A00AA4
:1005C8004908A10002300310A10DFF3E031DE72AD0
:1005D8000310210D943E840083170008A200840AAA
:1005E8000008A300FA2A0310A20DA30DA00BF72AF6
:1005F8004808A4002407A43E84002208831380002E
:10060800840A230880004708FF3EA000A00A490882
:10061800A10002300310A10DFF3E031D0E2B031095
:10062800210D963E840083170008A200840A000862
:10063800A300212B0310A20DA30DA00B1E2B48080D
:10064800A4002407A63E8400220883138000840A9D
:100658002308800008000A128A11E1250A128A116B
:100668000A128A11D1250A128A110A128A11182629
:100678000A128A1183120313C401C40A1030C2007B
:100688004208C7000230C2004208C8000108C20080
:10069800C3014208F2004308F3000A128A11072630
:1006A8000A128A11073083120313AB000030AC0022
:1006B8000A128A1181240A128A1183120313250847
:1006C800AE002408AD000A128A118F230A128A117B
:1006D800831203132B08C2004208C90083120313B4
:1006E8000108C200C3014208F2004308F3000A12DD
:1006F8008A1107260A128A110A128A113F200A1241
:100708008A11B0300A128A1136240A128A11722B01
:100718000A128A110C2883120313B001AE1F952BFD
:10072800962B9D2BAD09AE09AD0A0319AE0AB0018F
:10073800B00AAC1FA02BA12BA62BAB09AC09AB0AA6
:100748000319AC0A2B082C040319AB2BAC2BDB2B9D
:10075800AF01AF0ABA2B01300310AB0DAC0DFF3E51
:10076800031DB02B0130FB007B08AF07AC1FBD2B6E
:10077800BE2BAF2B2C082E02031DC42B2B082D02D9
:10078800031CC72BC82BCE2B2B08AD022C08031C2F
:10079800AE03AE0201300310AC0CAB0CFF3E031DE0
:1007A800CF2B0130AF02031DDA2BDB2BBE2B300819
:1007B8000319DF2BE02BE52BAD09AE09AD0A0319B0
:1007C800AE0A2E08AC002D08AB00080000308312DA
:1007D8000313A3000030A2000030A1000030A000E5
:1007E800721CF72BF82B112C760883120313A00721
:1007F800770803110318013E0319032CA107780891
:1008080003110318013E03190A2CA20779080311E2
:100818000318013E0319112CA3070130FA00031035
:10082800F60DF70DF80DF90DFA0B132C0130031026
:10083800F50CF40CF30CF20CFF3E031D1B2C750891
:10084800740473047204031D2A2C2B2CF42B8312BA
:1008580003132308F5002208F4002108F3002008F8
:10086800F200080083120313A40009304406031D94
:100878003E2C3F2C5F2CC401C40A4408A00020076A
:100888002407A1002108FE3E840083130008A2006B
:10089800840A0008A3002209F2002309F3000A12BF
:1008A8008A11C8240A128A1101300A128A118F2566
:1008B8000A128A11802C0130A0002008C4074408BD
:1008C800A00020072407A1002108FE3E840083130E
:1008D8000008A200840A0008A3002209F2002309E4
:1008E800F3000A128A11C8240A128A1100300A1267
:1008F8008A118F250A128A110800831203136208CD
:10090800F5006108F4006008F3005F08F200413068
:10091800F900C630F8004E30F7006D30F6000A12C4
:100928008A11EA230A128A11750883120313E20056
:100938007408E1007308E0007208DF003930DF074F
:10094800303003183130E007003003180130E10778
:10095800003003180130E2075F08A6006008A7000E
:100968006108A8006208A9001030AA00290DA90C86
:10097800A80CA70CA60CAA0BBA2CFF302605A400BD
:100988007F302705A5000800FA01FB01FA01FB01E9
:100998007B08803AFF0080307F02031DD52C103081
:1009A8007A02031CD82CD92CDA2C0A2D7A0AF400E6
:1009B8000130F5000030F600E42C0310F50DF60DBB
:1009C800F40BE12C72087505F70073087605F8003A
:1009D8007A0AF12C0310F80CF70CFF3E031DEE2CDD
:1009E8007708F900F90E8312031307087906EF391F
:1009F800790687000A128A112C260A128A110130F8
:100A0800FA070318FB0A0030FB07CC2C0800023455
:100A18000034023400340334003400340034033426
:100A28000034023400340234003400340034013419
:100A38000034033400340234003400340034023407
:100A480000340334003401340034003400340134F9
:100A580000340134003401340034013400340334E8
:100A680000340334003400340034003400340134DA
:100A780000340334003401340034003400340B1DD6
:100A8800462D472D532D0B11013083120313CD072B
:100A98000318CE0A0030CE07CC01CC0A682D0B1CF7
:100AA800562D572D682D83120313861A5C2D5D2D44
:100AB800602DCA01CA0ACB01061A632D642D672D61
:100AC800CA01CB01CB0A0B1071088A00700E830093
:100AD800FE0E7E0E0900F8007808F6007608F7008A
:100AE800802D7208F600770884007608831380004A
:100AF8000130F6007608F7070130F4020030031CD5
:100B0800F503F502740A031D8D2D750A031D8D2D3D
:100B18008E2D752D0800F30073080139F200F20ECE
:100B28008312031308087206EF39720688000A1246
:100B38008A1120260A128A110A128A1132260A12EA
:100B48008A110A128A1126260A128A1108007E08BA
:100B58008A007F0882000A128A11AB250A128A11BC
:100B68008000840A04087D0603190034FF0A03196B
:100B7800FE0AAF2D83160313061083120313061003
:100B88008316031308128812081388138312031399
:100B9800081288120813881308000A128A11EF2510
:100BA8000A128A110A128A11BE250A128A110A1219
:100BB8008A11FC250A128A11080083120313810185
:100BC8008B178B160B1183160313811501148114CF
:100BD80001158112080083160313071287120713E1
:100BE800871383120313071287120713871308004A
:100BF8008316031386160616061386138312031329
:100C0800061386130800720883120313DF007308A3
:100C1800E000E101E201080064008001840A0406A2
:100C2800031900340406112E8B170B178B150B10A4
:100C3800831603138113080083120313881388177C
:100C480088130800831203130713071707130800F4
:100C5800831203138713871787130800831203135C
:0E0C680008170813080001340034003400346B
:02400E00793FF8
:00000001FF
