:020000040000FA
:060000000A128A1110280B
:10000800FE00030EF0000A08F100831203137F08B4
:10001800F2000A128A114F2A0A128A11132883132E
:100028003830FD000230FE009830FF002030840098
:100038000A128A11B4220A128A110A128A111B237F
:100048000A128A11FA00383084004A300A128A11DA
:10005800F8220A128A11F90183010A128A114E291B
:1000680083120313D2002B2952088400831300083B
:10007800D000840A0008D1005009F3005109F400A7
:100088000A128A11C3210A128A1101300A128A112E
:100098007C220A128A11023083120313D0005008FE
:1000A800FA004D295208023E840083130008D0004C
:1000B800840A0008D1005009F3005109F4000A121B
:1000C8008A11C3210A128A1100300A128A117C226D
:1000D8000A128A11033083120313D0005008FA0061
:1000E8004D295208043E840083130008D000840A76
:1000F8000008D1005009F3005109F4000A128A11CE
:10010800C3210A128A1100300A128A117C220A12AB
:100118008A11043083120313D0005008FA004D29C5
:100128005208063E840083130008D000840A0008A1
:10013800D1005009F3005109F4000A128A11C321B1
:100148000A128A1100300A128A117C220A128A11B4
:10015800053083120313D0005008FA004D295208C5
:10016800083E840083130008D000840A0008D100E8
:100178005009F3005109F4000A128A11C3210A1226
:100188008A1100300A128A117C220A128A1106305A
:1001980083120313D0005008FA004D2952080A3E72
:1001A800840083130008D000840A0008D100500995
:1001B800F3005109F4000A128A11C3210A128A11A4
:1001C80000300A128A117C220A128A11073083121F
:1001D8000313D0005008FA004D2952080C3E840041
:1001E80083130008D000840A0008D1005009F300E6
:1001F8005109F4000A128A11C3210A128A11003027
:100208000A128A117C220A128A11083083120313F7
:10021800D0005008FA004D2952080E3E840083137E
:100228000008D000840A0008D1005009F3005109E1
:10023800F4000A128A11C3210A128A1100300A1224
:100248008A117C220A128A11FA01FA0A4D297A08BF
:10025800D000D1015108003A031933294D2950081B
:10026800013A03193828033A03195628013A0319A1
:100278007528073A03199428013A0319B328033A51
:100288000319D228013A0319F1280F3A0319102942
:100298004D2908000A128A11ED220A128A110A123F
:1002A8008A11D2220A128A1100300A128A110C22EB
:1002B8000A128A110030F300F4000A128A11C321CD
:1002C8000A128A11831203133108D8003008D700A4
:1002D8000D30FF000310D70DD80DFF0B6E293E0817
:1002E8005704BE003F085804BF000230303E840067
:1002F80083130008D700840A0008D8000D30FF00D7
:100308000310D70DD80DFF0B842940085704C000EF
:1003180041085804C1000430303E84000008D7006A
:10032800840A0008D8000D30FF000310D70DD80D3F
:10033800FF0B992942085704C20043085804C30018
:100348000630303E84000008D700840A0008D80030
:100358000D30FF000310D70DD80DFF0BAE29440850
:100368005704C40045085804C5003A300A128A11D7
:1003780034200A128A11B9290A128A111028F701A1
:10038800F801F701F8017808803AFF0080307F0211
:10039800031DD02910307702031CD329D429D5296D
:1003A800062A770A83120313CA000130CB000030F3
:1003B800CC00E1290310CB0DCC0DCA0BDE29730844
:1003C8004B05CD0074084C05CE00770AEE290310C2
:1003D800CE0CCD0CFF3E031DEB294D08CF00CF0DF1
:1003E800CF0D08084F06FB394F0688000A128A11FC
:1003F80006230A128A110130F7070318F80A003099
:10040800F807C7290A128A1117230A128A11080045
:1004180083120313CC00CD01CE010130F300831207
:1004280003134D0A192A0310F30DFF3E031D172A63
:1004380073084C05F4004D0A232A0310F40CFF3E00
:10044800031D212A7408F5007508CB004B0C031C0A
:100458008610031886140A128A110C230A128A11AC
:10046800013083120313CD070318CE0A0030CE07DC
:100478004E08803AFF0080307F02031D452A08306D
:100488004D02031C482A492A112A0A128A111223EA
:100498000A128A1108000B1D522A532A712A0B11BD
:1004A8000130B8070318B90A0030B9073908803A8B
:1004B800FF008F307F02031D632A42303802031C7D
:1004C800662A672A712A83120313B801B901790CC5
:1004D800031C061003180614F90972088312031383
:1004E800FF0071088A00700E8300FE0E7E0E090060
:1004F800F40074080139F300F30D8312031306089E
:100508007306FD39730686000A128A110C230A1233
:100518008A110A128A1112230A128A110A128A11DE
:1005280000230A128A110800303400344834003499
:100538004434003422340034443400344834003421
:1005480030340034003400340434003404340034CB
:1005580006340034003400347E088A007F088200A4
:100568000A128A11B0220A128A118000840A040829
:100578007D0603190034FF0A0319FE0AB42A8316FC
:10058800031306108610061106128612831203132F
:10059800061086100611061286120800831203132D
:1005A80081018B178B160B11831603138115011408
:1005B800811401158112080083160313081188118C
:1005C800081288128312031308118811081288125E
:1005D80008000A128A11E0220A128A110A128A11E4
:1005E800C3220A128A11080064008001840A0406E2
:1005F800031900340406F92A831203130812081693
:10060800081208008312031388128816881208003B
:1006180083120313861286168612080083120313A8
:100628000616061208008312031388110800013405
:02400E00793FF8
:00000001FF
