:020000040000FA
:060000000A128A1110280B
:10000800FE00030EF0000A08F100831203137F08B4
:10001800F2000A128A11482A0A128A111328831335
:100028003830FD000230FE009230FF00203084009E
:100038000A128A11AE220A128A110A128A1115238B
:100048000A128A11F8000A128A1116230A128A1152
:10005800F900383084004A300A128A11F2220A1252
:100068008A11FA0183010A128A114329F700232908
:100078007708840083130008F500840A0008F60056
:100088007509F3007609F4000A128A11B8210A12D8
:100098008A1101300A128A1176220A128A11023054
:1000A800F8000030F90042297708023E84008313E3
:1000B8000008F500840A0008F6007509F3007609BF
:1000C800F4000A128A11B8210A128A1100300A12A1
:1000D8008A1176220A128A110330F8000030F900DA
:1000E80042297708043E840083130008F500840A37
:1000F8000008F6007509F3007609F4000A128A115F
:10010800B8210A128A1100300A128A1176220A12BC
:100118008A110430F8000030F90042297708063EB9
:10012800840083130008F500840A0008F6007509A6
:10013800F3007609F4000A128A11B8210A128A110A
:1001480000300A128A1176220A128A110530F80044
:100158000030F90042297708083E8400831300081C
:10016800F500840A0008F6007509F3007609F40022
:100178000A128A11B8210A128A1100300A128A1149
:1001880076220A128A110630F8000030F900422956
:1001980077080A3E840083130008F500840A0008E3
:1001A800F6007509F3007609F4000A128A11B821DD
:1001B8000A128A1100300A128A1176220A128A114A
:1001C8000730F8000030F900422977080C3E840017
:1001D80083130008F500840A0008F6007509F30087
:1001E8007609F4000A128A11B8210A128A1100301D
:1001F8000A128A1176220A128A110830F800003091
:10020800F900422977080E3E840083130008F500A0
:10021800840A0008F6007509F3007609F4000A124A
:100228008A11B8210A128A1100300A128A1176221C
:100238000A128A110130F8000030F90042297908C1
:10024800003A0319282942297808013A03193C2859
:10025800033A03195828013A03197528073A03196C
:100268009228013A0319AF28033A0319CC28013A16
:100278000319E9280F3A03190629422908000A1226
:100288008A11E7220A128A110A128A11CC220A124A
:100298008A1100300A128A1105220A128A110030C6
:1002A800F300F4000A128A11B8210A128A11831283
:1002B80003133108D9003008D8000D30FF000310AF
:1002C800D80DD90DFF0B63293E085804BE003F081E
:1002D8005904BF000230303E840083130008D80060
:1002E800840A0008D9000D30FF000310D80DD90D7D
:1002F800FF0B792940085804C00041085904C1007F
:100308000430303E84000008D800840A0008D90070
:100318000D30FF000310D80DD90DFF0B8E294208B0
:100328005804C20043085904C3000630303E840014
:100338000008D800840A0008D9000D30FF00031017
:10034800D80DD90DFF0BA32944085804C40045084B
:100358005904C5003A300A128A113A200A128A1141
:10036800AE290A128A11102883120313D201D3016D
:10037800D201D3015308803AFF0080307F02031D69
:10038800C72910305202031CCA29CB29CC29FF29BE
:1003980083120313520ACA000130CB000030CC008C
:1003A800D8290310CB0DCC0DCA0BD52973084B05E2
:1003B800CD0074084C05CE00520AE5290310CE0C76
:1003C800CD0CFF3E031DE2294D08CF00CF0DCF0D08
:1003D80008084F06FB394F0688000A128A110023C5
:1003E8000A128A11013083120313D2070318D30AA1
:1003F8000030D307BE290A128A1111230A128A1162
:10040800080083120313CC00CD01CE010130F300A4
:10041800831203134D0A122A0310F30DFF3E031D26
:10042800102A73084C05F4004D0A1C2A0310F40C1A
:10043800FF3E031D1A2A7408F5007508CB004B0C03
:10044800031C8610031886140A128A1106230A123E
:100458008A11013083120313CD070318CE0A003026
:10046800CE074E08803AFF0080307F02031D3E2AE7
:1004780008304D02031C412A422A0A2A0A128A110C
:100488000C230A128A1108000B1D4B2A4C2A6D2ACC
:100498000B113908803AFF008F307F02031D562A5E
:1004A80042303802031C592A5A2A652A8312031338
:1004B800B801B9017A0C031C061003180614FA09CE
:1004C8006D2A013083120313B8070318B90A0030E4
:1004D800B9077208FF0071088A00700E8300FE0ECB
:1004E8007E0E0900F40074080139F300F30D83123D
:1004F800031306087306FD39730686000A128A116B
:1005080006230A128A110A128A110C230A128A1166
:100518000A128A11FA220A128A11080030340034A9
:100528004834003444340034223400344434003431
:100538004834003430340034003400340434003497
:100548000434003406340034003400347E088A0051
:100558007F0882000A128A11AA220A128A118000D0
:10056800840A04087D0603190034FF0A0319FE0AE9
:10057800AE2A831603130610861006110612861279
:10058800831203130610861006110612861208003D
:100598008312031381018B178B160B118316031318
:1005A80081150114811401158112080083160313A3
:1005B8000811881108128812831203130811881170
:1005C8000812881208000A128A11DA220A128A11FD
:1005D8000A128A11BD220A128A11080064008001D9
:1005E800840A0406031900340406F32A8312031349
:1005F80008120816081208008312031388128816B6
:1006080088120800831203138612861686120800C1
:1006180083120313061606120800831203138811A7
:060628000800013400345B
:02400E00793FF8
:00000001FF
