:020000040000FA
:060000000A128A110C280F
:10000800FE00030EF0000A08F1000A128A11672B9D
:100018000A128A110F288313D030FD000330FE0026
:100028003730FF00A03084000A128A11F0230A1228
:100038008A117030FD000430FE006F30FF006C3014
:1000480084000A128A11F0230A128A11D03084001F
:10005800E0300A128A1148240A128A1120308400DA
:100068004B300A128A1148240A128A1183010A1293
:100078008A1101290030F200F3001030F40000303A
:10008800F5003B300A128A11B0230A128A11831232
:1000980003133603031D512852285E280430340206
:1000A8000318572858285E280130CB004B08B4079E
:1000B800B6016B283703031D622863286B283408B0
:1000C8000319672868286B280130B402B701330880
:1000D800FF3ECB00CB0A3508CC0002300310CC0D14
:1000E800FF3E031D722803104C0DA03E84008313AD
:1000F8000008CD00840A0008CE0085280310CD0D25
:10010800CE0DCB0B82283408CF004F073B3E84002E
:100118004D088000840A4E0880003308FF3ECB005B
:10012800CB0A3508CC0002300310CC0DFF3E031D6E
:10013800982803104C0DA23E84000008CD00840AC4
:100148000008CE00AA280310CD0DCE0DCB0BA72892
:100158003408CF004F073D3E84004D088000840AD4
:100168004E0880003308FF3ECB00CB0A3508CC0090
:1001780002300310CC0DFF3E031DBD2803104C0DAB
:10018800A43E84000008CD00840A0008CE00CF28D1
:100198000310CD0DCE0DCB0BCC283408CF004F0764
:1001A8003F3E84004D088000840A4E0880003308D2
:1001B800FF3ECB00CB0A3508CC0002300310CC0D33
:1001C800FF3E031DE22803104C0DA63E84000008E4
:1001D800CD00840A0008CE00F4280310CD0DCE0D02
:1001E800CB0BF1283408CF004F07413E84004D085F
:1001F8008000840A4E08800008000A128A1112241E
:100208000A128A110A128A1150240A128A110A1231
:100218008A1122240A128A1183120313B001B00A28
:100228001030E1006108B3000230E1006108B40059
:100238000A128A118D230A128A110A128A1165225A
:100248000A128A110A128A113E200A128A1183128E
:100258000313EA01EB01831203136A08E100610743
:10026800203E840083130008E200840A0008E300AB
:100278006A08E40064073B3E84000008E500840A3D
:100288000008E60062086504E70063086604E80001
:100298006A08E9006907D03E840067088000840A7C
:1002A800680880000130EA070318EB0A0030EB0702
:1002B8006B08803AFF0080307F02031D65290830F3
:1002C8006A02031C682969292F29D0300A128A1169
:1002D8001A220A128A1121290A128A110C28831259
:1002E8000313DB01D91F79297A298129D809D9096A
:1002F800D80A0319D90ADB01DB0AD71F8429852903
:100308008A29D609D709D60A0319D70A56085704DD
:1003180003198F299029BF29DA01DA0A9E290130A9
:100328000310D60DD70DFF3E031D94290130FB00A5
:100338007B08DA07D71FA129A22993295708590250
:10034800031DA82956085802031CAB29AC29B22959
:100358005608D8025708031CD903D90201300310E4
:10036800D70CD60CFF3E031DB3290130DA02031D5A
:10037800BE29BF29A2295B080319C329C429C92991
:10038800D809D909D80A0319D90A5908D700580829
:10039800D6000800003083120313CE000030CD00D1
:1003A8000030CC000030CB00721CDB29DC29F52999
:1003B800760883120313CB07770803110318013E4D
:1003C8000319E729CC07780803110318013E03191C
:1003D800EE29CD07790803110318013E0319F52901
:1003E800CE070130FA000310F60DF70DF80DF90DE0
:1003F800FA0BF72901300310F50CF40CF30CF20C8E
:10040800FF3E031DFF297508740473047204031D5D
:100418000E2A0F2AD829831203134E08F5004D0817
:10042800F4004C08F3004B08F20008008312031391
:10043800CF0009303006031D222A232A432AB0019F
:10044800B00A3008CB004B074F07CC004C08FE3EE3
:10045800840083130008CD00840A0008CE004D09EB
:10046800F2004E09F3000A128A11F4220A128A11C4
:1004780001300A128A11D0230A128A11642A013023
:10048800CB004B08B0073008CB004B074F07CC0018
:100498004C08FE3E840083130008CD00840A00083F
:1004A800CE004D09F2004E09F3000A128A11F42217
:1004B8000A128A1100300A128A11D0230A128A11EC
:1004C8000800831203133803031D6B2A6C2AAC2A15
:1004D8000130B9070318BA0A0030BA070F303A02D8
:1004E800423003193902031C7A2A7B2AAB2A320CC0
:1004F800031C0610031806143209DC005C08B2005D
:100508000130B302B901BA013308031D8C2A8D2AC0
:10051800AB2A1030DC005C08B3000530D600003090
:10052800D7000A128A11AD220A128A118312031304
:100538005008D9004F08D8000A128A1173210A12EC
:100548008A11831203135608DC005C08B500B80151
:100558000800831203136F08F5006E08F4006D0895
:10056800F3006C08F2004130F900C630F8004E3054
:10057800F7006D30F6000A128A11CE210A128A118C
:10058800750883120313EF007408EE007308ED007A
:100598007208EC003930EC07303003183130ED07C1
:1005A800003003180130EE07003003180130EF0760
:1005B8006C08D1006D08D2006E08D3006F08D40013
:1005C8001030D500540DD40CD30CD20CD10CD50B53
:1005D800E62AFF305105CF007F305205D0000800D1
:1005E800FA01FB01FA01FB017B08803AFF00803029
:1005F8007F02031D012B10307A02031C042B052BEC
:10060800062B362B7A0AF4000130F5000030F6008C
:10061800102B0310F50DF60DF40B0D2B7208750554
:10062800F70073087605F8007A0A1D2B0310F80CFA
:10063800F70CFF3E031D1A2B7708F900F90E8312F9
:10064800031307087906EF39790687000A128A1119
:1006580064240A128A110130FA070318FB0A0030D1
:10066800FB07F82A0800023400340234003403344B
:1006780000340034003400340034033400340234CD
:1006880000340234003401340034033400340234BA
:1006980000340034003400340034023400340334AD
:1006A800003401340034013400340134003401349E
:1006B800003401340034003400340334003403348B
:1006C8000034003400340B1D6A2B6B2B712B0B117B
:1006D80083120313B801B80A862B0B1C742B752BD5
:1006E800862B83120313861A7A2B7B2B7E2BB6015B
:1006F800B60AB701061A812B822B852BB601B701E2
:10070800B70A0B1071088A00700E8300FE0E7E0E69
:100718000900033083120313A0000030A100033046
:10072800A2000030A3000330A4000030A50003306D
:10073800A6000030A7000330A8000030A90003304D
:10074800AA000030AB000330AC000030AD0003302D
:10075800AE000030AF000800F7007708F600760812
:10076800F800C12B7208F600780884007608831315
:1007780080000130F6007608F8070130F4020030F6
:10078800031CF503F502740A031DCE2B750A031D1D
:10079800CE2BCF2BB62B0800F30073080139F200DB
:1007A800F20E8312031308087206EF3972068800E6
:1007B8000A128A1158240A128A110A128A116A2402
:1007C8000A128A110A128A115E240A128A11080072
:1007D8007E088A007F0882000A128A11EC230A1216
:1007E8008A118000840A04087D0603190034FF0A70
:1007F8000319FE0AF02B8316031306108312031342
:10080800061083160313081288120813881383121C
:100818000313081288120813881308000A128A1191
:1008280030240A128A110A128A11FF230A128A1125
:100838000A128A113D240A128A110800831203132E
:1008480081018B178B160B11831603138115011465
:1008580081140115811208008316031307128712E9
:1008680007138713831203130712871207138713BB
:1008780008008316031386160616061386138312BA
:10088800031306138613080064008001840A040613
:10089800031900340406492C8B170B178B150B1002
:1008A8008316031381130800831203138813881710
:1008B8008813080083120313071307170713080088
:1008C80083120313871387178713080083120313F0
:0E08D8000817081308000134003400340034FF
:02400E00793FF8
:00000001FF
